{
  "_format": "hh-sol-artifact-1",
  "contractName": "OptiIdRegistry",
  "sourceName": "contracts/OptiIdRegistry.sol",
  "abi": [
    {
      "inputs": [],
      "stateMutability": "nonpayable",
      "type": "constructor"
    },
    {
      "anonymous": false,
      "inputs": [
        {
          "indexed": false,
          "internalType": "string",
          "name": "name",
          "type": "string"
        },
        {
          "indexed": false,
          "internalType": "address",
          "name": "owner",
          "type": "address"
        }
      ],
      "name": "DomainRegistered",
      "type": "event"
    },
    {
      "anonymous": false,
      "inputs": [
        {
          "indexed": false,
          "internalType": "string",
          "name": "name",
          "type": "string"
        },
        {
          "indexed": false,
          "internalType": "address",
          "name": "from",
          "type": "address"
        },
        {
          "indexed": false,
          "internalType": "address",
          "name": "to",
          "type": "address"
        }
      ],
      "name": "DomainTransferred",
      "type": "event"
    },
    {
      "anonymous": false,
      "inputs": [
        {
          "indexed": true,
          "internalType": "address",
          "name": "previousOwner",
          "type": "address"
        },
        {
          "indexed": true,
          "internalType": "address",
          "name": "newOwner",
          "type": "address"
        }
      ],
      "name": "OwnershipTransferred",
      "type": "event"
    },
    {
      "anonymous": false,
      "inputs": [
        {
          "indexed": false,
          "internalType": "uint256",
          "name": "adjectivesCount",
          "type": "uint256"
        },
        {
          "indexed": false,
          "internalType": "uint256",
          "name": "descriptorsCount",
          "type": "uint256"
        },
        {
          "indexed": false,
          "internalType": "uint256",
          "name": "nounsCount",
          "type": "uint256"
        },
        {
          "indexed": false,
          "internalType": "uint256",
          "name": "chainsCount",
          "type": "uint256"
        }
      ],
      "name": "ValidComponentsSet",
      "type": "event"
    },
    {
      "inputs": [],
      "name": "MAX_DOMAINS_PER_USER",
      "outputs": [
        {
          "internalType": "uint256",
          "name": "",
          "type": "uint256"
        }
      ],
      "stateMutability": "view",
      "type": "function"
    },
    {
      "inputs": [],
      "name": "REGISTRATION_FEE",
      "outputs": [
        {
          "internalType": "uint256",
          "name": "",
          "type": "uint256"
        }
      ],
      "stateMutability": "view",
      "type": "function"
    },
    {
      "inputs": [
        {
          "internalType": "bytes32",
          "name": "",
          "type": "bytes32"
        }
      ],
      "name": "domainComponents",
      "outputs": [
        {
          "internalType": "uint8",
          "name": "adjectiveIndex",
          "type": "uint8"
        },
        {
          "internalType": "uint8",
          "name": "descriptorIndex",
          "type": "uint8"
        },
        {
          "internalType": "uint8",
          "name": "nounIndex",
          "type": "uint8"
        },
        {
          "internalType": "uint8",
          "name": "chainIndex",
          "type": "uint8"
        },
        {
          "internalType": "bool",
          "name": "exists",
          "type": "bool"
        }
      ],
      "stateMutability": "view",
      "type": "function"
    },
    {
      "inputs": [
        {
          "internalType": "string",
          "name": "",
          "type": "string"
        }
      ],
      "name": "domainExists",
      "outputs": [
        {
          "internalType": "bool",
          "name": "",
          "type": "bool"
        }
      ],
      "stateMutability": "view",
      "type": "function"
    },
    {
      "inputs": [
        {
          "internalType": "string",
          "name": "",
          "type": "string"
        }
      ],
      "name": "domainOwners",
      "outputs": [
        {
          "internalType": "address",
          "name": "owner",
          "type": "address"
        },
        {
          "internalType": "uint256",
          "name": "timestamp",
          "type": "uint256"
        }
      ],
      "stateMutability": "view",
      "type": "function"
    },
    {
      "inputs": [],
      "name": "getAllComponents",
      "outputs": [
        {
          "internalType": "string[]",
          "name": "",
          "type": "string[]"
        },
        {
          "internalType": "string[]",
          "name": "",
          "type": "string[]"
        },
        {
          "internalType": "string[]",
          "name": "",
          "type": "string[]"
        },
        {
          "internalType": "string[]",
          "name": "",
          "type": "string[]"
        }
      ],
      "stateMutability": "view",
      "type": "function"
    },
    {
      "inputs": [
        {
          "internalType": "string",
          "name": "name",
          "type": "string"
        }
      ],
      "name": "getDomainComponents",
      "outputs": [
        {
          "internalType": "string",
          "name": "adjective",
          "type": "string"
        },
        {
          "internalType": "string",
          "name": "descriptor",
          "type": "string"
        },
        {
          "internalType": "string",
          "name": "noun",
          "type": "string"
        },
        {
          "internalType": "string",
          "name": "chain",
          "type": "string"
        }
      ],
      "stateMutability": "view",
      "type": "function"
    },
    {
      "inputs": [
        {
          "internalType": "string",
          "name": "name",
          "type": "string"
        }
      ],
      "name": "getDomainInfo",
      "outputs": [
        {
          "internalType": "address",
          "name": "owner",
          "type": "address"
        },
        {
          "internalType": "uint256",
          "name": "timestamp",
          "type": "uint256"
        },
        {
          "internalType": "bool",
          "name": "exists",
          "type": "bool"
        }
      ],
      "stateMutability": "view",
      "type": "function"
    },
    {
      "inputs": [
        {
          "internalType": "address",
          "name": "user",
          "type": "address"
        }
      ],
      "name": "getUserDomains",
      "outputs": [
        {
          "internalType": "string[]",
          "name": "",
          "type": "string[]"
        }
      ],
      "stateMutability": "view",
      "type": "function"
    },
    {
      "inputs": [],
      "name": "owner",
      "outputs": [
        {
          "internalType": "address",
          "name": "",
          "type": "address"
        }
      ],
      "stateMutability": "view",
      "type": "function"
    },
    {
      "inputs": [
        {
          "internalType": "address",
          "name": "user",
          "type": "address"
        },
        {
          "internalType": "uint256",
          "name": "nonce",
          "type": "uint256"
        },
        {
          "internalType": "uint8",
          "name": "chainIndex",
          "type": "uint8"
        }
      ],
      "name": "previewRandomDomain",
      "outputs": [
        {
          "internalType": "string",
          "name": "",
          "type": "string"
        }
      ],
      "stateMutability": "view",
      "type": "function"
    },
    {
      "inputs": [
        {
          "internalType": "uint8",
          "name": "chainIndex",
          "type": "uint8"
        }
      ],
      "name": "registerRandomDomain",
      "outputs": [],
      "stateMutability": "payable",
      "type": "function"
    },
    {
      "inputs": [],
      "name": "renounceOwnership",
      "outputs": [],
      "stateMutability": "nonpayable",
      "type": "function"
    },
    {
      "inputs": [
        {
          "internalType": "string[]",
          "name": "adjectives",
          "type": "string[]"
        },
        {
          "internalType": "string[]",
          "name": "descriptors",
          "type": "string[]"
        },
        {
          "internalType": "string[]",
          "name": "nouns",
          "type": "string[]"
        },
        {
          "internalType": "string[]",
          "name": "chains",
          "type": "string[]"
        }
      ],
      "name": "setValidComponents",
      "outputs": [],
      "stateMutability": "nonpayable",
      "type": "function"
    },
    {
      "inputs": [
        {
          "internalType": "string",
          "name": "name",
          "type": "string"
        },
        {
          "internalType": "address",
          "name": "to",
          "type": "address"
        }
      ],
      "name": "transferDomain",
      "outputs": [],
      "stateMutability": "nonpayable",
      "type": "function"
    },
    {
      "inputs": [
        {
          "internalType": "address",
          "name": "newOwner",
          "type": "address"
        }
      ],
      "name": "transferOwnership",
      "outputs": [],
      "stateMutability": "nonpayable",
      "type": "function"
    },
    {
      "inputs": [
        {
          "internalType": "address",
          "name": "",
          "type": "address"
        },
        {
          "internalType": "uint256",
          "name": "",
          "type": "uint256"
        }
      ],
      "name": "userDomains",
      "outputs": [
        {
          "internalType": "string",
          "name": "",
          "type": "string"
        }
      ],
      "stateMutability": "view",
      "type": "function"
    },
    {
      "inputs": [
        {
          "internalType": "uint256",
          "name": "",
          "type": "uint256"
        }
      ],
      "name": "validAdjectives",
      "outputs": [
        {
          "internalType": "string",
          "name": "",
          "type": "string"
        }
      ],
      "stateMutability": "view",
      "type": "function"
    },
    {
      "inputs": [
        {
          "internalType": "uint256",
          "name": "",
          "type": "uint256"
        }
      ],
      "name": "validChains",
      "outputs": [
        {
          "internalType": "string",
          "name": "",
          "type": "string"
        }
      ],
      "stateMutability": "view",
      "type": "function"
    },
    {
      "inputs": [
        {
          "internalType": "uint256",
          "name": "",
          "type": "uint256"
        }
      ],
      "name": "validDescriptors",
      "outputs": [
        {
          "internalType": "string",
          "name": "",
          "type": "string"
        }
      ],
      "stateMutability": "view",
      "type": "function"
    },
    {
      "inputs": [
        {
          "internalType": "uint256",
          "name": "",
          "type": "uint256"
        }
      ],
      "name": "validNouns",
      "outputs": [
        {
          "internalType": "string",
          "name": "",
          "type": "string"
        }
      ],
      "stateMutability": "view",
      "type": "function"
    },
    {
      "inputs": [],
      "name": "withdraw",
      "outputs": [],
      "stateMutability": "nonpayable",
      "type": "function"
    }
  ],
  "bytecode": "0x60806040523480156200001157600080fd5b506200001d336200002e565b62000028336200002e565b6200007e565b600080546001600160a01b038381166001600160a01b0319831681178455604051919092169283917f8be0079c531659141344cd1fd0a4f28419497f9722a3daafe3b4186f6b6457e09190a35050565b6128c8806200008e6000396000f3fe6080604052600436106101355760003560e01c806375a4d14c116100ab578063b11957231161006f578063b11957231461037a578063b9e97fb514610407578063c11f70fa1461041a578063c75599741461044a578063f2b4989614610495578063f2fde38b146104ff57600080fd5b806375a4d14c146102d257806383d1d052146102f257806386d12ac9146103125780638da5cb5b146103325780639f4cb8f01461035a57600080fd5b80634889e192116100fd5780634889e192146101f75780635a5a654c1461023e57806364b4f7511461025e57806366fadf0b146102785780636702f0931461029d578063715018a6146102bd57600080fd5b80630183196b1461013a57806303b444ac1461017057806319fbe87e146101935780633c4b9635146101b55780633ccfd60b146101e2575b600080fd5b34801561014657600080fd5b5061015a610155366004611db0565b61051f565b6040516101679190611e73565b60405180910390f35b34801561017c57600080fd5b50610185600581565b604051908152602001610167565b34801561019f57600080fd5b506101b36101ae366004611ecf565b61060e565b005b3480156101c157600080fd5b506101d56101d0366004611f23565b610910565b6040516101679190611f3c565b3480156101ee57600080fd5b506101b36109bc565b34801561020357600080fd5b50610217610212366004611f4f565b610a01565b604080516001600160a01b0390941684526020840192909252151590820152606001610167565b34801561024a57600080fd5b506101d5610259366004611f23565b610a83565b34801561026a57600080fd5b50610185655af3107a400081565b34801561028457600080fd5b5061028d610a93565b6040516101679493929190611f91565b3480156102a957600080fd5b506101d56102b8366004611f23565b610dfb565b3480156102c957600080fd5b506101b3610e0b565b3480156102de57600080fd5b506101d56102ed366004611ffa565b610e1f565b3480156102fe57600080fd5b506101d561030d366004611f23565b610e59565b34801561031e57600080fd5b506101b361032d366004612072565b610e69565b34801561033e57600080fd5b506000546040516001600160a01b039091168152602001610167565b34801561036657600080fd5b506101d5610375366004612136565b611090565b34801561038657600080fd5b506103d2610395366004611f23565b60076020526000908152604090205460ff808216916101008104821691620100008204811691630100000081048216916401000000009091041685565b6040805160ff96871681529486166020860152928516928401929092529092166060820152901515608082015260a001610167565b6101b3610415366004612160565b6110c8565b34801561042657600080fd5b5061043a610435366004611f4f565b61152a565b604051610167949392919061217b565b34801561045657600080fd5b506104856104653660046121de565b805160208183018101805160068252928201919093012091525460ff1681565b6040519015158152602001610167565b3480156104a157600080fd5b506104e06104b03660046121de565b8051602081830181018051600582529282019190930120915280546001909101546001600160a01b039091169082565b604080516001600160a01b039093168352602083019190915201610167565b34801561050b57600080fd5b506101b361051a366004611db0565b6119ee565b6001600160a01b0381166000908152600860209081526040808320805482518185028101850190935280835260609492939192909184015b828210156106035783829060005260206000200180546105769061228f565b80601f01602080910402602001604051908101604052809291908181526020018280546105a29061228f565b80156105ef5780601f106105c4576101008083540402835291602001916105ef565b820191906000526020600020905b8154815290600101906020018083116105d257829003601f168201915b505050505081526020019060010190610557565b505050509050919050565b600683836040516106209291906122c9565b9081526040519081900360200190205460ff1661067c5760405162461bcd60e51b8152602060048201526015602482015274111bdb585a5b88191bd95cc81b9bdd08195e1a5cdd605a1b60448201526064015b60405180910390fd5b336001600160a01b0316600584846040516106989291906122c9565b908152604051908190036020019020546001600160a01b0316146106f15760405162461bcd60e51b815260206004820152601060248201526f2737ba103237b6b0b4b71037bbb732b960811b6044820152606401610673565b336000908152600860205260408120805490915b8181101561080257858560405161071d9291906122c9565b6040518091039020838281548110610737576107376122d9565b9060005260206000200160405161074e9190612362565b6040518091039020036107f057610766600183612384565b8110156107bd5782610779600184612384565b81548110610789576107896122d9565b906000526020600020018382815481106107a5576107a56122d9565b9060005260206000200190816107bb91906123fb565b505b828054806107cd576107cd6124d6565b6001900381819060005260206000200160006107e99190611d06565b9055610802565b806107fa816124ec565b915050610705565b506001600160a01b0383166000908152600860205260409020805460051161086c5760405162461bcd60e51b815260206004820152601e60248201527f526563697069656e742068617320746f6f206d616e7920646f6d61696e7300006044820152606401610673565b805460018101825560008281526020902001610889868883612505565b50836005878760405161089d9291906122c9565b90815260405190819003602001812080546001600160a01b03939093166001600160a01b0319909316929092179091557fb93e5ab0838892891d936aa278bd882aaa1c862433c9ff605a2fb0cd0b9d4e11906109009088908890339089906125bf565b60405180910390a1505050505050565b6002818154811061092057600080fd5b90600052602060002001600091509050805461093b9061228f565b80601f01602080910402602001604051908101604052809291908181526020018280546109679061228f565b80156109b45780601f10610989576101008083540402835291602001916109b4565b820191906000526020600020905b81548152906001019060200180831161099757829003601f168201915b505050505081565b6109c4611a64565b600080546040516001600160a01b03909116914780156108fc02929091818181858888f193505050501580156109fe573d6000803e3d6000fd5b50565b60008060008060058686604051610a199291906122c9565b908152604080519182900360209081018320838301835280546001600160a01b031680855260019091015491840182905291519293509091600690610a61908a908a906122c9565b90815260405190819003602001902054919550935060ff169150509250925092565b6004818154811061092057600080fd5b606080606080600160026003600483805480602002602001604051908101604052809291908181526020016000905b82821015610b6e578382906000526020600020018054610ae19061228f565b80601f0160208091040260200160405190810160405280929190818152602001828054610b0d9061228f565b8015610b5a5780601f10610b2f57610100808354040283529160200191610b5a565b820191906000526020600020905b815481529060010190602001808311610b3d57829003601f168201915b505050505081526020019060010190610ac2565b50505050935082805480602002602001604051908101604052809291908181526020016000905b82821015610c41578382906000526020600020018054610bb49061228f565b80601f0160208091040260200160405190810160405280929190818152602001828054610be09061228f565b8015610c2d5780601f10610c0257610100808354040283529160200191610c2d565b820191906000526020600020905b815481529060010190602001808311610c1057829003601f168201915b505050505081526020019060010190610b95565b50505050925081805480602002602001604051908101604052809291908181526020016000905b82821015610d14578382906000526020600020018054610c879061228f565b80601f0160208091040260200160405190810160405280929190818152602001828054610cb39061228f565b8015610d005780601f10610cd557610100808354040283529160200191610d00565b820191906000526020600020905b815481529060010190602001808311610ce357829003601f168201915b505050505081526020019060010190610c68565b50505050915080805480602002602001604051908101604052809291908181526020016000905b82821015610de7578382906000526020600020018054610d5a9061228f565b80601f0160208091040260200160405190810160405280929190818152602001828054610d869061228f565b8015610dd35780601f10610da857610100808354040283529160200191610dd3565b820191906000526020600020905b815481529060010190602001808311610db657829003601f168201915b505050505081526020019060010190610d3b565b505050509050935093509350935090919293565b6001818154811061092057600080fd5b610e13611a64565b610e1d6000611abe565b565b60045460609060ff831610610e465760405162461bcd60e51b815260040161067390612606565b610e51848484611b0e565b949350505050565b6003818154811061092057600080fd5b610e71611a64565b610e7d60016000611d40565b610e8960026000611d40565b610e9560036000611d40565b610ea160046000611d40565b60005b87811015610f05576001898983818110610ec057610ec06122d9565b9050602002810190610ed29190612633565b82546001810184556000938452602090932090920191610ef29183612505565b5080610efd816124ec565b915050610ea4565b5060005b85811015610f6a576002878783818110610f2557610f256122d9565b9050602002810190610f379190612633565b82546001810184556000938452602090932090920191610f579183612505565b5080610f62816124ec565b915050610f09565b5060005b83811015610fcf576003858583818110610f8a57610f8a6122d9565b9050602002810190610f9c9190612633565b82546001810184556000938452602090932090920191610fbc9183612505565b5080610fc7816124ec565b915050610f6e565b5060005b81811015611034576004838383818110610fef57610fef6122d9565b90506020028101906110019190612633565b825460018101845560009384526020909320909201916110219183612505565b508061102c816124ec565b915050610fd3565b506001546002546003546004546040805194855260208501939093529183015260608201527fce864cfd624e853188c537167af6415ac7de7477451be5b5483b10465ed32a249060800160405180910390a15050505050505050565b600860205281600052604060002081815481106110ac57600080fd5b9060005260206000200160009150915050805461093b9061228f565b655af3107a40003410156111155760405162461bcd60e51b8152602060048201526014602482015273125b9cdd59999a58da595b9d081c185e5b595b9d60621b6044820152606401610673565b33600090815260086020526040902080546005116111685760405162461bcd60e51b815260206004820152601060248201526f546f6f206d616e7920646f6d61696e7360801b6044820152606401610673565b6001541580159061117a575060025415155b8015611187575060035415155b8015611197575060045460ff8316105b6111ed5760405162461bcd60e51b815260206004820152602160248201527f496e76616c696420636f6d706f6e656e7473206f7220636861696e20696e64656044820152600f60fb1b6064820152608401610673565b336000908152600960205260408120805491611208836124ec565b90915550503360008181526009602052604081205490916112299185611b0e565b905060068160405161123b919061267a565b9081526040519081900360200190205460ff16156112a95760405162461bcd60e51b815260206004820152602560248201527f446f6d61696e20616c72656164792072656769737465726564202874727920616044820152646761696e2960d81b6064820152608401610673565b33600081815260096020908152604080832054905192936112f4936112d49391924292909101612696565b60408051601f198184030181529190528051602090910120600154611c59565b3360008181526009602090815260408083205490519495509193611340936113209390924292016126c7565b60408051601f198184030181529190528051602090910120600254611c59565b336000818152600960209081526040808320549051949550919361138c9361136c9390924292016126f9565b60408051601f198184030181529190528051602090910120600354611c59565b84516020808701919091206040805160a08101825260ff88811682528781168286019081528682168385019081528d831660608501908152600160808601908152600088815260078a5287902095518654945193519251915190861661ffff1990951694909417610100938616939093029290921763ffff00001916620100009185169190910263ff000000191617630100000091909316029190911764ff00000000191664010000000091151591909102179055805180820182523381524293810193909352519293509160059061146690889061267a565b90815260405160209181900382018120835181546001600160a01b0319166001600160a01b0390911617815592909101516001928301556006906114ab90889061267a565b90815260405160209181900382019020805460ff1916921515929092179091558654600181018855600088815291909120016114e7868261272b565b507f70f2ff07e8136617cdfb0433423063c9dd697c507560d7860cce09fa86874a1285336040516115199291906127df565b60405180910390a150505050505050565b606080606080600086866040516115429291906122c9565b604080519182900382206000818152600760209081529083902060a0850184525460ff8082168652610100820481169286019290925262010000810482169385019390935263010000008304811660608501526401000000009092049091161515608083018190529092506115f95760405162461bcd60e51b815260206004820152601b60248201527f446f6d61696e20636f6d706f6e656e7473206e6f7420666f756e6400000000006044820152606401610673565b600154815160ff161061164e5760405162461bcd60e51b815260206004820152601760248201527f496e76616c69642061646a65637469766520696e6465780000000000000000006044820152606401610673565b600254602082015160ff16106116a65760405162461bcd60e51b815260206004820152601860248201527f496e76616c69642064657363726970746f7220696e64657800000000000000006044820152606401610673565b600354604082015160ff16106116f35760405162461bcd60e51b8152602060048201526012602482015271092dcecc2d8d2c840dcdeeadc40d2dcc8caf60731b6044820152606401610673565b600454606082015160ff161061171b5760405162461bcd60e51b815260040161067390612606565b6001816000015160ff1681548110611735576117356122d9565b906000526020600020016002826020015160ff1681548110611759576117596122d9565b906000526020600020016003836040015160ff168154811061177d5761177d6122d9565b906000526020600020016004846060015160ff16815481106117a1576117a16122d9565b906000526020600020018380546117b79061228f565b80601f01602080910402602001604051908101604052809291908181526020018280546117e39061228f565b80156118305780601f1061180557610100808354040283529160200191611830565b820191906000526020600020905b81548152906001019060200180831161181357829003601f168201915b505050505093508280546118439061228f565b80601f016020809104026020016040519081016040528092919081815260200182805461186f9061228f565b80156118bc5780601f10611891576101008083540402835291602001916118bc565b820191906000526020600020905b81548152906001019060200180831161189f57829003601f168201915b505050505092508180546118cf9061228f565b80601f01602080910402602001604051908101604052809291908181526020018280546118fb9061228f565b80156119485780601f1061191d57610100808354040283529160200191611948565b820191906000526020600020905b81548152906001019060200180831161192b57829003601f168201915b5050505050915080805461195b9061228f565b80601f01602080910402602001604051908101604052809291908181526020018280546119879061228f565b80156119d45780601f106119a9576101008083540402835291602001916119d4565b820191906000526020600020905b8154815290600101906020018083116119b757829003601f168201915b505050505090509550955095509550505092959194509250565b6119f6611a64565b6001600160a01b038116611a5b5760405162461bcd60e51b815260206004820152602660248201527f4f776e61626c653a206e6577206f776e657220697320746865207a65726f206160448201526564647265737360d01b6064820152608401610673565b6109fe81611abe565b6000546001600160a01b03163314610e1d5760405162461bcd60e51b815260206004820181905260248201527f4f776e61626c653a2063616c6c6572206973206e6f7420746865206f776e65726044820152606401610673565b600080546001600160a01b038381166001600160a01b0319831681178455604051919092169283917f8be0079c531659141344cd1fd0a4f28419497f9722a3daafe3b4186f6b6457e09190a35050565b60045460609060ff831610611b355760405162461bcd60e51b815260040161067390612606565b6000611b4f8542866040516020016112d493929190612696565b90506000611b6b864287604051602001611320939291906126c7565b90506000611b8787428860405160200161136c939291906126f9565b905060018360ff1681548110611b9f57611b9f6122d9565b9060005260206000200160028360ff1681548110611bbf57611bbf6122d9565b9060005260206000200160038360ff1681548110611bdf57611bdf6122d9565b9060005260206000200160048860ff1681548110611bff57611bff6122d9565b90600052602060002001604051806040016040528060088152602001670b9bdc1d1a4b9a5960c21b815250604051602001611c3e959493929190612809565b60405160208183030381529060405293505050509392505050565b600060ff821115611cac5760405162461bcd60e51b815260206004820152601760248201527f4d617820746f6f206c6172676520666f722075696e74380000000000000000006044820152606401610673565b60008211611cf35760405162461bcd60e51b81526020600482015260146024820152734d6178206d75737420626520706f73697469766560601b6044820152606401610673565b611cfd8284612870565b90505b92915050565b508054611d129061228f565b6000825580601f10611d22575050565b601f0160209004906000526020600020908101906109fe9190611d5e565b50805460008255906000526020600020908101906109fe9190611d77565b5b80821115611d735760008155600101611d5f565b5090565b80821115611d73576000611d8b8282611d06565b50600101611d77565b80356001600160a01b0381168114611dab57600080fd5b919050565b600060208284031215611dc257600080fd5b611cfd82611d94565b60005b83811015611de6578181015183820152602001611dce565b50506000910152565b60008151808452611e07816020860160208601611dcb565b601f01601f19169290920160200192915050565b600082825180855260208086019550808260051b84010181860160005b84811015611e6657601f19868403018952611e54838351611def565b98840198925090830190600101611e38565b5090979650505050505050565b602081526000611cfd6020830184611e1b565b60008083601f840112611e9857600080fd5b50813567ffffffffffffffff811115611eb057600080fd5b602083019150836020828501011115611ec857600080fd5b9250929050565b600080600060408486031215611ee457600080fd5b833567ffffffffffffffff811115611efb57600080fd5b611f0786828701611e86565b9094509250611f1a905060208501611d94565b90509250925092565b600060208284031215611f3557600080fd5b5035919050565b602081526000611cfd6020830184611def565b60008060208385031215611f6257600080fd5b823567ffffffffffffffff811115611f7957600080fd5b611f8585828601611e86565b90969095509350505050565b608081526000611fa46080830187611e1b565b8281036020840152611fb68187611e1b565b90508281036040840152611fca8186611e1b565b90508281036060840152611fde8185611e1b565b979650505050505050565b803560ff81168114611dab57600080fd5b60008060006060848603121561200f57600080fd5b61201884611d94565b925060208401359150611f1a60408501611fe9565b60008083601f84011261203f57600080fd5b50813567ffffffffffffffff81111561205757600080fd5b6020830191508360208260051b8501011115611ec857600080fd5b6000806000806000806000806080898b03121561208e57600080fd5b883567ffffffffffffffff808211156120a657600080fd5b6120b28c838d0161202d565b909a50985060208b01359150808211156120cb57600080fd5b6120d78c838d0161202d565b909850965060408b01359150808211156120f057600080fd5b6120fc8c838d0161202d565b909650945060608b013591508082111561211557600080fd5b506121228b828c0161202d565b999c989b5096995094979396929594505050565b6000806040838503121561214957600080fd5b61215283611d94565b946020939093013593505050565b60006020828403121561217257600080fd5b611cfd82611fe9565b60808152600061218e6080830187611def565b82810360208401526121a08187611def565b905082810360408401526121b48186611def565b90508281036060840152611fde8185611def565b634e487b7160e01b600052604160045260246000fd5b6000602082840312156121f057600080fd5b813567ffffffffffffffff8082111561220857600080fd5b818401915084601f83011261221c57600080fd5b81358181111561222e5761222e6121c8565b604051601f8201601f19908116603f01168101908382118183101715612256576122566121c8565b8160405282815287602084870101111561226f57600080fd5b826020860160208301376000928101602001929092525095945050505050565b600181811c908216806122a357607f821691505b6020821081036122c357634e487b7160e01b600052602260045260246000fd5b50919050565b8183823760009101908152919050565b634e487b7160e01b600052603260045260246000fd5b600081546122fc8161228f565b60018281168015612314576001811461232957612358565b60ff1984168752821515830287019450612358565b8560005260208060002060005b8581101561234f5781548a820152908401908201612336565b50505082870194505b5050505092915050565b6000611cfd82846122ef565b634e487b7160e01b600052601160045260246000fd5b81810381811115611d0057611d0061236e565b601f8211156123e157600081815260208120601f850160051c810160208610156123be5750805b601f850160051c820191505b818110156123dd578281556001016123ca565b5050505b505050565b600019600383901b1c191660019190911b1790565b818103612406575050565b612410825461228f565b67ffffffffffffffff811115612428576124286121c8565b61243c81612436845461228f565b84612397565b6000601f82116001811461246a57600083156124585750848201545b61246284826123e6565b8555506124cf565b600085815260209020601f19841690600086815260209020845b838110156124a45782860154825560019586019590910190602001612484565b50858310156124c25781850154600019600388901b60f8161c191681555b50505060018360011b0184555b5050505050565b634e487b7160e01b600052603160045260246000fd5b6000600182016124fe576124fe61236e565b5060010190565b67ffffffffffffffff83111561251d5761251d6121c8565b6125318361252b835461228f565b83612397565b6000601f84116001811461255f576000851561254d5750838201355b61255786826123e6565b8455506124cf565b600083815260209020601f19861690835b828110156125905786850135825560209485019460019092019101612570565b50868210156125ad5760001960f88860031b161c19848701351681555b505060018560011b0183555050505050565b6060815283606082015283856080830137600060808583018101919091526001600160a01b039384166020830152919092166040830152601f909201601f19160101919050565b602080825260139082015272092dcecc2d8d2c840c6d0c2d2dc40d2dcc8caf606b1b604082015260600190565b6000808335601e1984360301811261264a57600080fd5b83018035915067ffffffffffffffff82111561266557600080fd5b602001915036819003821315611ec857600080fd5b6000825161268c818460208701611dcb565b9190910192915050565b60609390931b6001600160601b0319168352601483019190915260348201526230b23560e91b605482015260570190565b60609390931b6001600160601b031916835260148301919091526034820152636465736360e01b605482015260580190565b60609390931b6001600160601b031916835260148301919091526034820152633737bab760e11b605482015260580190565b815167ffffffffffffffff811115612745576127456121c8565b61275381612436845461228f565b602080601f83116001811461278257600084156127705750858301515b61277a85826123e6565b8655506123dd565b600085815260208120601f198616915b828110156127b157888601518255948401946001909101908401612792565b50858210156127cf5787850151600019600388901b60f8161c191681555b5050505050600190811b01905550565b6040815260006127f26040830185611def565b905060018060a01b03831660208301529392505050565b600061281582886122ef565b602d60f81b80825261282a60018301896122ef565b908152905061283c60018201876122ef565b9050601760f91b815261285260018201866122ef565b90508351612864818360208801611dcb565b01979650505050505050565b60008261288d57634e487b7160e01b600052601260045260246000fd5b50069056fea26469706673582212207fc792bd48ad589b436ce824b7c79845f4c0057728bde5c610414f1710a5697464736f6c63430008140033",
  "linkReferences": {},
  "deployedLinkReferences": {}
}