{"contracts/OptiIdRegistry.sol":{"OptiIdRegistry":{"abi":[{"inputs":[],"stateMutability":"nonpayable","type":"constructor"},{"anonymous":false,"inputs":[{"indexed":false,"internalType":"string","name":"name","type":"string"},{"indexed":false,"internalType":"address","name":"owner","type":"address"}],"name":"DomainRegistered","type":"event"},{"anonymous":false,"inputs":[{"indexed":false,"internalType":"string","name":"name","type":"string"},{"indexed":false,"internalType":"address","name":"from","type":"address"},{"indexed":false,"internalType":"address","name":"to","type":"address"}],"name":"DomainTransferred","type":"event"},{"anonymous":false,"inputs":[{"indexed":true,"internalType":"address","name":"previousOwner","type":"address"},{"indexed":true,"internalType":"address","name":"newOwner","type":"address"}],"name":"OwnershipTransferred","type":"event"},{"anonymous":false,"inputs":[{"indexed":false,"internalType":"uint256","name":"adjectivesCount","type":"uint256"},{"indexed":false,"internalType":"uint256","name":"descriptorsCount","type":"uint256"},{"indexed":false,"internalType":"uint256","name":"nounsCount","type":"uint256"},{"indexed":false,"internalType":"uint256","name":"chainsCount","type":"uint256"}],"name":"ValidComponentsSet","type":"event"},{"inputs":[],"name":"MAX_DOMAINS_PER_USER","outputs":[{"internalType":"uint256","name":"","type":"uint256"}],"stateMutability":"view","type":"function"},{"inputs":[],"name":"REGISTRATION_FEE","outputs":[{"internalType":"uint256","name":"","type":"uint256"}],"stateMutability":"view","type":"function"},{"inputs":[{"internalType":"bytes32","name":"","type":"bytes32"}],"name":"domainComponents","outputs":[{"internalType":"uint8","name":"adjectiveIndex","type":"uint8"},{"internalType":"uint8","name":"descriptorIndex","type":"uint8"},{"internalType":"uint8","name":"nounIndex","type":"uint8"},{"internalType":"uint8","name":"chainIndex","type":"uint8"},{"internalType":"bool","name":"exists","type":"bool"}],"stateMutability":"view","type":"function"},{"inputs":[{"internalType":"string","name":"","type":"string"}],"name":"domainExists","outputs":[{"internalType":"bool","name":"","type":"bool"}],"stateMutability":"view","type":"function"},{"inputs":[{"internalType":"string","name":"","type":"string"}],"name":"domainOwners","outputs":[{"internalType":"address","name":"owner","type":"address"},{"internalType":"uint256","name":"timestamp","type":"uint256"}],"stateMutability":"view","type":"function"},{"inputs":[],"name":"getAllComponents","outputs":[{"internalType":"string[]","name":"","type":"string[]"},{"internalType":"string[]","name":"","type":"string[]"},{"internalType":"string[]","name":"","type":"string[]"},{"internalType":"string[]","name":"","type":"string[]"}],"stateMutability":"view","type":"function"},{"inputs":[{"internalType":"string","name":"name","type":"string"}],"name":"getDomainComponents","outputs":[{"internalType":"string","name":"adjective","type":"string"},{"internalType":"string","name":"descriptor","type":"string"},{"internalType":"string","name":"noun","type":"string"},{"internalType":"string","name":"chain","type":"string"}],"stateMutability":"view","type":"function"},{"inputs":[{"internalType":"string","name":"name","type":"string"}],"name":"getDomainInfo","outputs":[{"internalType":"address","name":"owner","type":"address"},{"internalType":"uint256","name":"timestamp","type":"uint256"},{"internalType":"bool","name":"exists","type":"bool"}],"stateMutability":"view","type":"function"},{"inputs":[{"internalType":"address","name":"user","type":"address"}],"name":"getUserDomains","outputs":[{"internalType":"string[]","name":"","type":"string[]"}],"stateMutability":"view","type":"function"},{"inputs":[],"name":"owner","outputs":[{"internalType":"address","name":"","type":"address"}],"stateMutability":"view","type":"function"},{"inputs":[{"internalType":"address","name":"user","type":"address"},{"internalType":"uint256","name":"nonce","type":"uint256"},{"internalType":"uint8","name":"chainIndex","type":"uint8"}],"name":"previewRandomDomain","outputs":[{"internalType":"string","name":"","type":"string"}],"stateMutability":"view","type":"function"},{"inputs":[{"internalType":"uint8","name":"chainIndex","type":"uint8"}],"name":"registerRandomDomain","outputs":[],"stateMutability":"payable","type":"function"},{"inputs":[],"name":"renounceOwnership","outputs":[],"stateMutability":"nonpayable","type":"function"},{"inputs":[{"internalType":"string[]","name":"adjectives","type":"string[]"},{"internalType":"string[]","name":"descriptors","type":"string[]"},{"internalType":"string[]","name":"nouns","type":"string[]"},{"internalType":"string[]","name":"chains","type":"string[]"}],"name":"setValidComponents","outputs":[],"stateMutability":"nonpayable","type":"function"},{"inputs":[{"internalType":"string","name":"name","type":"string"},{"internalType":"address","name":"to","type":"address"}],"name":"transferDomain","outputs":[],"stateMutability":"nonpayable","type":"function"},{"inputs":[{"internalType":"address","name":"newOwner","type":"address"}],"name":"transferOwnership","outputs":[],"stateMutability":"nonpayable","type":"function"},{"inputs":[{"internalType":"address","name":"","type":"address"},{"internalType":"uint256","name":"","type":"uint256"}],"name":"userDomains","outputs":[{"internalType":"string","name":"","type":"string"}],"stateMutability":"view","type":"function"},{"inputs":[{"internalType":"uint256","name":"","type":"uint256"}],"name":"validAdjectives","outputs":[{"internalType":"string","name":"","type":"string"}],"stateMutability":"view","type":"function"},{"inputs":[{"internalType":"uint256","name":"","type":"uint256"}],"name":"validChains","outputs":[{"internalType":"string","name":"","type":"string"}],"stateMutability":"view","type":"function"},{"inputs":[{"internalType":"uint256","name":"","type":"uint256"}],"name":"validDescriptors","outputs":[{"internalType":"string","name":"","type":"string"}],"stateMutability":"view","type":"function"},{"inputs":[{"internalType":"uint256","name":"","type":"uint256"}],"name":"validNouns","outputs":[{"internalType":"string","name":"","type":"string"}],"stateMutability":"view","type":"function"},{"inputs":[],"name":"withdraw","outputs":[],"stateMutability":"nonpayable","type":"function"}],"evm":{"bytecode":{"linkReferences":{},"object":"60806040523480156200001157600080fd5b506200001d336200002e565b62000028336200002e565b6200007e565b600080546001600160a01b038381166001600160a01b0319831681178455604051919092169283917f8be0079c531659141344cd1fd0a4f28419497f9722a3daafe3b4186f6b6457e09190a35050565b6128c3806200008e6000396000f3fe6080604052600436106101355760003560e01c806375a4d14c116100ab578063b11957231161006f578063b11957231461037a578063b9e97fb514610407578063c11f70fa1461041a578063c75599741461044a578063f2b4989614610495578063f2fde38b146104ff57600080fd5b806375a4d14c146102d257806383d1d052146102f257806386d12ac9146103125780638da5cb5b146103325780639f4cb8f01461035a57600080fd5b80634889e192116100fd5780634889e192146101f75780635a5a654c1461023e57806364b4f7511461025e57806366fadf0b146102785780636702f0931461029d578063715018a6146102bd57600080fd5b80630183196b1461013a57806303b444ac1461017057806319fbe87e146101935780633c4b9635146101b55780633ccfd60b146101e2575b600080fd5b34801561014657600080fd5b5061015a610155366004611daf565b61051f565b6040516101679190611e72565b60405180910390f35b34801561017c57600080fd5b50610185600581565b604051908152602001610167565b34801561019f57600080fd5b506101b36101ae366004611ece565b61060e565b005b3480156101c157600080fd5b506101d56101d0366004611f22565b610910565b6040516101679190611f3b565b3480156101ee57600080fd5b506101b36109bc565b34801561020357600080fd5b50610217610212366004611f4e565b610a01565b604080516001600160a01b0390941684526020840192909252151590820152606001610167565b34801561024a57600080fd5b506101d5610259366004611f22565b610a83565b34801561026a57600080fd5b50610185655af3107a400081565b34801561028457600080fd5b5061028d610a93565b6040516101679493929190611f90565b3480156102a957600080fd5b506101d56102b8366004611f22565b610dfb565b3480156102c957600080fd5b506101b3610e0b565b3480156102de57600080fd5b506101d56102ed366004611ff9565b610e1f565b3480156102fe57600080fd5b506101d561030d366004611f22565b610e59565b34801561031e57600080fd5b506101b361032d366004612071565b610e69565b34801561033e57600080fd5b506000546040516001600160a01b039091168152602001610167565b34801561036657600080fd5b506101d5610375366004612135565b611090565b34801561038657600080fd5b506103d2610395366004611f22565b60076020526000908152604090205460ff808216916101008104821691620100008204811691630100000081048216916401000000009091041685565b6040805160ff96871681529486166020860152928516928401929092529092166060820152901515608082015260a001610167565b6101b361041536600461215f565b6110c8565b34801561042657600080fd5b5061043a610435366004611f4e565b61152a565b604051610167949392919061217a565b34801561045657600080fd5b506104856104653660046121dd565b805160208183018101805160068252928201919093012091525460ff1681565b6040519015158152602001610167565b3480156104a157600080fd5b506104e06104b03660046121dd565b8051602081830181018051600582529282019190930120915280546001909101546001600160a01b039091169082565b604080516001600160a01b039093168352602083019190915201610167565b34801561050b57600080fd5b506101b361051a366004611daf565b6119ee565b6001600160a01b0381166000908152600860209081526040808320805482518185028101850190935280835260609492939192909184015b828210156106035783829060005260206000200180546105769061228e565b80601f01602080910402602001604051908101604052809291908181526020018280546105a29061228e565b80156105ef5780601f106105c4576101008083540402835291602001916105ef565b820191906000526020600020905b8154815290600101906020018083116105d257829003601f168201915b505050505081526020019060010190610557565b505050509050919050565b600683836040516106209291906122c8565b9081526040519081900360200190205460ff1661067c5760405162461bcd60e51b8152602060048201526015602482015274111bdb585a5b88191bd95cc81b9bdd08195e1a5cdd605a1b60448201526064015b60405180910390fd5b336001600160a01b0316600584846040516106989291906122c8565b908152604051908190036020019020546001600160a01b0316146106f15760405162461bcd60e51b815260206004820152601060248201526f2737ba103237b6b0b4b71037bbb732b960811b6044820152606401610673565b336000908152600860205260408120805490915b8181101561080257858560405161071d9291906122c8565b6040518091039020838281548110610737576107376122d8565b9060005260206000200160405161074e9190612361565b6040518091039020036107f057610766600183612383565b8110156107bd5782610779600184612383565b81548110610789576107896122d8565b906000526020600020018382815481106107a5576107a56122d8565b9060005260206000200190816107bb91906123fa565b505b828054806107cd576107cd6124d5565b6001900381819060005260206000200160006107e99190611d05565b9055610802565b806107fa816124eb565b915050610705565b506001600160a01b0383166000908152600860205260409020805460051161086c5760405162461bcd60e51b815260206004820152601e60248201527f526563697069656e742068617320746f6f206d616e7920646f6d61696e7300006044820152606401610673565b805460018101825560008281526020902001610889868883612504565b50836005878760405161089d9291906122c8565b90815260405190819003602001812080546001600160a01b03939093166001600160a01b0319909316929092179091557fb93e5ab0838892891d936aa278bd882aaa1c862433c9ff605a2fb0cd0b9d4e11906109009088908890339089906125be565b60405180910390a1505050505050565b6002818154811061092057600080fd5b90600052602060002001600091509050805461093b9061228e565b80601f01602080910402602001604051908101604052809291908181526020018280546109679061228e565b80156109b45780601f10610989576101008083540402835291602001916109b4565b820191906000526020600020905b81548152906001019060200180831161099757829003601f168201915b505050505081565b6109c4611a64565b600080546040516001600160a01b03909116914780156108fc02929091818181858888f193505050501580156109fe573d6000803e3d6000fd5b50565b60008060008060058686604051610a199291906122c8565b908152604080519182900360209081018320838301835280546001600160a01b031680855260019091015491840182905291519293509091600690610a61908a908a906122c8565b90815260405190819003602001902054919550935060ff169150509250925092565b6004818154811061092057600080fd5b606080606080600160026003600483805480602002602001604051908101604052809291908181526020016000905b82821015610b6e578382906000526020600020018054610ae19061228e565b80601f0160208091040260200160405190810160405280929190818152602001828054610b0d9061228e565b8015610b5a5780601f10610b2f57610100808354040283529160200191610b5a565b820191906000526020600020905b815481529060010190602001808311610b3d57829003601f168201915b505050505081526020019060010190610ac2565b50505050935082805480602002602001604051908101604052809291908181526020016000905b82821015610c41578382906000526020600020018054610bb49061228e565b80601f0160208091040260200160405190810160405280929190818152602001828054610be09061228e565b8015610c2d5780601f10610c0257610100808354040283529160200191610c2d565b820191906000526020600020905b815481529060010190602001808311610c1057829003601f168201915b505050505081526020019060010190610b95565b50505050925081805480602002602001604051908101604052809291908181526020016000905b82821015610d14578382906000526020600020018054610c879061228e565b80601f0160208091040260200160405190810160405280929190818152602001828054610cb39061228e565b8015610d005780601f10610cd557610100808354040283529160200191610d00565b820191906000526020600020905b815481529060010190602001808311610ce357829003601f168201915b505050505081526020019060010190610c68565b50505050915080805480602002602001604051908101604052809291908181526020016000905b82821015610de7578382906000526020600020018054610d5a9061228e565b80601f0160208091040260200160405190810160405280929190818152602001828054610d869061228e565b8015610dd35780601f10610da857610100808354040283529160200191610dd3565b820191906000526020600020905b815481529060010190602001808311610db657829003601f168201915b505050505081526020019060010190610d3b565b505050509050935093509350935090919293565b6001818154811061092057600080fd5b610e13611a64565b610e1d6000611abe565b565b60045460609060ff831610610e465760405162461bcd60e51b815260040161067390612605565b610e51848484611b0e565b949350505050565b6003818154811061092057600080fd5b610e71611a64565b610e7d60016000611d3f565b610e8960026000611d3f565b610e9560036000611d3f565b610ea160046000611d3f565b60005b87811015610f05576001898983818110610ec057610ec06122d8565b9050602002810190610ed29190612632565b82546001810184556000938452602090932090920191610ef29183612504565b5080610efd816124eb565b915050610ea4565b5060005b85811015610f6a576002878783818110610f2557610f256122d8565b9050602002810190610f379190612632565b82546001810184556000938452602090932090920191610f579183612504565b5080610f62816124eb565b915050610f09565b5060005b83811015610fcf576003858583818110610f8a57610f8a6122d8565b9050602002810190610f9c9190612632565b82546001810184556000938452602090932090920191610fbc9183612504565b5080610fc7816124eb565b915050610f6e565b5060005b81811015611034576004838383818110610fef57610fef6122d8565b90506020028101906110019190612632565b825460018101845560009384526020909320909201916110219183612504565b508061102c816124eb565b915050610fd3565b506001546002546003546004546040805194855260208501939093529183015260608201527fce864cfd624e853188c537167af6415ac7de7477451be5b5483b10465ed32a249060800160405180910390a15050505050505050565b600860205281600052604060002081815481106110ac57600080fd5b9060005260206000200160009150915050805461093b9061228e565b655af3107a40003410156111155760405162461bcd60e51b8152602060048201526014602482015273125b9cdd59999a58da595b9d081c185e5b595b9d60621b6044820152606401610673565b33600090815260086020526040902080546005116111685760405162461bcd60e51b815260206004820152601060248201526f546f6f206d616e7920646f6d61696e7360801b6044820152606401610673565b6001541580159061117a575060025415155b8015611187575060035415155b8015611197575060045460ff8316105b6111ed5760405162461bcd60e51b815260206004820152602160248201527f496e76616c696420636f6d706f6e656e7473206f7220636861696e20696e64656044820152600f60fb1b6064820152608401610673565b336000908152600960205260408120805491611208836124eb565b90915550503360008181526009602052604081205490916112299185611b0e565b905060068160405161123b9190612679565b9081526040519081900360200190205460ff16156112a95760405162461bcd60e51b815260206004820152602560248201527f446f6d61696e20616c72656164792072656769737465726564202874727920616044820152646761696e2960d81b6064820152608401610673565b33600081815260096020908152604080832054905192936112f4936112d49391924292909101612695565b60408051601f198184030181529190528051602090910120600154611c58565b3360008181526009602090815260408083205490519495509193611340936113209390924292016126c6565b60408051601f198184030181529190528051602090910120600254611c58565b336000818152600960209081526040808320549051949550919361138c9361136c9390924292016126f8565b60408051601f198184030181529190528051602090910120600354611c58565b84516020808701919091206040805160a08101825260ff88811682528781168286019081528682168385019081528d831660608501908152600160808601908152600088815260078a5287902095518654945193519251915190861661ffff1990951694909417610100938616939093029290921763ffff00001916620100009185169190910263ff000000191617630100000091909316029190911764ff000000001916640100000000911515919091021790558051808201825233815242938101939093525192935091600590611466908890612679565b90815260405160209181900382018120835181546001600160a01b0319166001600160a01b0390911617815592909101516001928301556006906114ab908890612679565b90815260405160209181900382019020805460ff1916921515929092179091558654600181018855600088815291909120016114e7868261272a565b507f70f2ff07e8136617cdfb0433423063c9dd697c507560d7860cce09fa86874a1285336040516115199291906127de565b60405180910390a150505050505050565b606080606080600086866040516115429291906122c8565b604080519182900382206000818152600760209081529083902060a0850184525460ff8082168652610100820481169286019290925262010000810482169385019390935263010000008304811660608501526401000000009092049091161515608083018190529092506115f95760405162461bcd60e51b815260206004820152601b60248201527f446f6d61696e20636f6d706f6e656e7473206e6f7420666f756e6400000000006044820152606401610673565b600154815160ff161061164e5760405162461bcd60e51b815260206004820152601760248201527f496e76616c69642061646a65637469766520696e6465780000000000000000006044820152606401610673565b600254602082015160ff16106116a65760405162461bcd60e51b815260206004820152601860248201527f496e76616c69642064657363726970746f7220696e64657800000000000000006044820152606401610673565b600354604082015160ff16106116f35760405162461bcd60e51b8152602060048201526012602482015271092dcecc2d8d2c840dcdeeadc40d2dcc8caf60731b6044820152606401610673565b600454606082015160ff161061171b5760405162461bcd60e51b815260040161067390612605565b6001816000015160ff1681548110611735576117356122d8565b906000526020600020016002826020015160ff1681548110611759576117596122d8565b906000526020600020016003836040015160ff168154811061177d5761177d6122d8565b906000526020600020016004846060015160ff16815481106117a1576117a16122d8565b906000526020600020018380546117b79061228e565b80601f01602080910402602001604051908101604052809291908181526020018280546117e39061228e565b80156118305780601f1061180557610100808354040283529160200191611830565b820191906000526020600020905b81548152906001019060200180831161181357829003601f168201915b505050505093508280546118439061228e565b80601f016020809104026020016040519081016040528092919081815260200182805461186f9061228e565b80156118bc5780601f10611891576101008083540402835291602001916118bc565b820191906000526020600020905b81548152906001019060200180831161189f57829003601f168201915b505050505092508180546118cf9061228e565b80601f01602080910402602001604051908101604052809291908181526020018280546118fb9061228e565b80156119485780601f1061191d57610100808354040283529160200191611948565b820191906000526020600020905b81548152906001019060200180831161192b57829003601f168201915b5050505050915080805461195b9061228e565b80601f01602080910402602001604051908101604052809291908181526020018280546119879061228e565b80156119d45780601f106119a9576101008083540402835291602001916119d4565b820191906000526020600020905b8154815290600101906020018083116119b757829003601f168201915b505050505090509550955095509550505092959194509250565b6119f6611a64565b6001600160a01b038116611a5b5760405162461bcd60e51b815260206004820152602660248201527f4f776e61626c653a206e6577206f776e657220697320746865207a65726f206160448201526564647265737360d01b6064820152608401610673565b6109fe81611abe565b6000546001600160a01b03163314610e1d5760405162461bcd60e51b815260206004820181905260248201527f4f776e61626c653a2063616c6c6572206973206e6f7420746865206f776e65726044820152606401610673565b600080546001600160a01b038381166001600160a01b0319831681178455604051919092169283917f8be0079c531659141344cd1fd0a4f28419497f9722a3daafe3b4186f6b6457e09190a35050565b60045460609060ff831610611b355760405162461bcd60e51b815260040161067390612605565b6000611b4f8542866040516020016112d493929190612695565b90506000611b6b864287604051602001611320939291906126c6565b90506000611b8787428860405160200161136c939291906126f8565b905060018360ff1681548110611b9f57611b9f6122d8565b9060005260206000200160028360ff1681548110611bbf57611bbf6122d8565b9060005260206000200160038360ff1681548110611bdf57611bdf6122d8565b9060005260206000200160048860ff1681548110611bff57611bff6122d8565b90600052602060002001604051806040016040528060078152602001660b9bdc1d0b9a5960ca1b815250604051602001611c3d959493929190612808565b60405160208183030381529060405293505050509392505050565b600060ff821115611cab5760405162461bcd60e51b815260206004820152601760248201527f4d617820746f6f206c6172676520666f722075696e74380000000000000000006044820152606401610673565b60008211611cf25760405162461bcd60e51b81526020600482015260146024820152734d6178206d75737420626520706f73697469766560601b6044820152606401610673565b611cfc828461286b565b90505b92915050565b508054611d119061228e565b6000825580601f10611d21575050565b601f0160209004906000526020600020908101906109fe9190611d5d565b50805460008255906000526020600020908101906109fe9190611d76565b5b80821115611d725760008155600101611d5e565b5090565b80821115611d72576000611d8a8282611d05565b50600101611d76565b80356001600160a01b0381168114611daa57600080fd5b919050565b600060208284031215611dc157600080fd5b611cfc82611d93565b60005b83811015611de5578181015183820152602001611dcd565b50506000910152565b60008151808452611e06816020860160208601611dca565b601f01601f19169290920160200192915050565b600082825180855260208086019550808260051b84010181860160005b84811015611e6557601f19868403018952611e53838351611dee565b98840198925090830190600101611e37565b5090979650505050505050565b602081526000611cfc6020830184611e1a565b60008083601f840112611e9757600080fd5b50813567ffffffffffffffff811115611eaf57600080fd5b602083019150836020828501011115611ec757600080fd5b9250929050565b600080600060408486031215611ee357600080fd5b833567ffffffffffffffff811115611efa57600080fd5b611f0686828701611e85565b9094509250611f19905060208501611d93565b90509250925092565b600060208284031215611f3457600080fd5b5035919050565b602081526000611cfc6020830184611dee565b60008060208385031215611f6157600080fd5b823567ffffffffffffffff811115611f7857600080fd5b611f8485828601611e85565b90969095509350505050565b608081526000611fa36080830187611e1a565b8281036020840152611fb58187611e1a565b90508281036040840152611fc98186611e1a565b90508281036060840152611fdd8185611e1a565b979650505050505050565b803560ff81168114611daa57600080fd5b60008060006060848603121561200e57600080fd5b61201784611d93565b925060208401359150611f1960408501611fe8565b60008083601f84011261203e57600080fd5b50813567ffffffffffffffff81111561205657600080fd5b6020830191508360208260051b8501011115611ec757600080fd5b6000806000806000806000806080898b03121561208d57600080fd5b883567ffffffffffffffff808211156120a557600080fd5b6120b18c838d0161202c565b909a50985060208b01359150808211156120ca57600080fd5b6120d68c838d0161202c565b909850965060408b01359150808211156120ef57600080fd5b6120fb8c838d0161202c565b909650945060608b013591508082111561211457600080fd5b506121218b828c0161202c565b999c989b5096995094979396929594505050565b6000806040838503121561214857600080fd5b61215183611d93565b946020939093013593505050565b60006020828403121561217157600080fd5b611cfc82611fe8565b60808152600061218d6080830187611dee565b828103602084015261219f8187611dee565b905082810360408401526121b38186611dee565b90508281036060840152611fdd8185611dee565b634e487b7160e01b600052604160045260246000fd5b6000602082840312156121ef57600080fd5b813567ffffffffffffffff8082111561220757600080fd5b818401915084601f83011261221b57600080fd5b81358181111561222d5761222d6121c7565b604051601f8201601f19908116603f01168101908382118183101715612255576122556121c7565b8160405282815287602084870101111561226e57600080fd5b826020860160208301376000928101602001929092525095945050505050565b600181811c908216806122a257607f821691505b6020821081036122c257634e487b7160e01b600052602260045260246000fd5b50919050565b8183823760009101908152919050565b634e487b7160e01b600052603260045260246000fd5b600081546122fb8161228e565b60018281168015612313576001811461232857612357565b60ff1984168752821515830287019450612357565b8560005260208060002060005b8581101561234e5781548a820152908401908201612335565b50505082870194505b5050505092915050565b6000611cfc82846122ee565b634e487b7160e01b600052601160045260246000fd5b81810381811115611cff57611cff61236d565b601f8211156123e057600081815260208120601f850160051c810160208610156123bd5750805b601f850160051c820191505b818110156123dc578281556001016123c9565b5050505b505050565b600019600383901b1c191660019190911b1790565b818103612405575050565b61240f825461228e565b67ffffffffffffffff811115612427576124276121c7565b61243b81612435845461228e565b84612396565b6000601f82116001811461246957600083156124575750848201545b61246184826123e5565b8555506124ce565b600085815260209020601f19841690600086815260209020845b838110156124a35782860154825560019586019590910190602001612483565b50858310156124c15781850154600019600388901b60f8161c191681555b50505060018360011b0184555b5050505050565b634e487b7160e01b600052603160045260246000fd5b6000600182016124fd576124fd61236d565b5060010190565b67ffffffffffffffff83111561251c5761251c6121c7565b6125308361252a835461228e565b83612396565b6000601f84116001811461255e576000851561254c5750838201355b61255686826123e5565b8455506124ce565b600083815260209020601f19861690835b8281101561258f578685013582556020948501946001909201910161256f565b50868210156125ac5760001960f88860031b161c19848701351681555b505060018560011b0183555050505050565b6060815283606082015283856080830137600060808583018101919091526001600160a01b039384166020830152919092166040830152601f909201601f19160101919050565b602080825260139082015272092dcecc2d8d2c840c6d0c2d2dc40d2dcc8caf606b1b604082015260600190565b6000808335601e1984360301811261264957600080fd5b83018035915067ffffffffffffffff82111561266457600080fd5b602001915036819003821315611ec757600080fd5b6000825161268b818460208701611dca565b9190910192915050565b60609390931b6001600160601b0319168352601483019190915260348201526230b23560e91b605482015260570190565b60609390931b6001600160601b031916835260148301919091526034820152636465736360e01b605482015260580190565b60609390931b6001600160601b031916835260148301919091526034820152633737bab760e11b605482015260580190565b815167ffffffffffffffff811115612744576127446121c7565b61275281612435845461228e565b602080601f831160018114612781576000841561276f5750858301515b61277985826123e5565b8655506123dc565b600085815260208120601f198616915b828110156127b057888601518255948401946001909101908401612791565b50858210156127ce5787850151600019600388901b60f8161c191681555b5050505050600190811b01905550565b6040815260006127f16040830185611dee565b905060018060a01b03831660208301529392505050565b600061281482886122ee565b601760f91b80825261282960018301896122ee565b915080825261283b60018301886122ee565b908152905061284d60018201866122ee565b9050835161285f818360208801611dca565b01979650505050505050565b60008261288857634e487b7160e01b600052601260045260246000fd5b50069056fea2646970667358221220db9b9734edcb17954c1986549f2feb5500d70512fc363dfb51416c7941d74eb764736f6c63430008140033","opcodes":"PUSH1 0x80 PUSH1 0x40 MSTORE CALLVALUE DUP1 ISZERO PUSH3 0x11 JUMPI PUSH1 0x0 DUP1 REVERT JUMPDEST POP PUSH3 0x1D CALLER PUSH3 0x2E JUMP JUMPDEST PUSH3 0x28 CALLER PUSH3 0x2E JUMP JUMPDEST PUSH3 0x7E JUMP JUMPDEST PUSH1 0x0 DUP1 SLOAD PUSH1 0x1 PUSH1 0x1 PUSH1 0xA0 SHL SUB DUP4 DUP2 AND PUSH1 0x1 PUSH1 0x1 PUSH1 0xA0 SHL SUB NOT DUP4 AND DUP2 OR DUP5 SSTORE PUSH1 0x40 MLOAD SWAP2 SWAP1 SWAP3 AND SWAP3 DUP4 SWAP2 PUSH32 0x8BE0079C531659141344CD1FD0A4F28419497F9722A3DAAFE3B4186F6B6457E0 SWAP2 SWAP1 LOG3 POP POP JUMP JUMPDEST PUSH2 0x28C3 DUP1 PUSH3 0x8E PUSH1 0x0 CODECOPY PUSH1 0x0 RETURN INVALID PUSH1 0x80 PUSH1 0x40 MSTORE PUSH1 0x4 CALLDATASIZE LT PUSH2 0x135 JUMPI PUSH1 0x0 CALLDATALOAD PUSH1 0xE0 SHR DUP1 PUSH4 0x75A4D14C GT PUSH2 0xAB JUMPI DUP1 PUSH4 0xB1195723 GT PUSH2 0x6F JUMPI DUP1 PUSH4 0xB1195723 EQ PUSH2 0x37A JUMPI DUP1 PUSH4 0xB9E97FB5 EQ PUSH2 0x407 JUMPI DUP1 PUSH4 0xC11F70FA EQ PUSH2 0x41A JUMPI DUP1 PUSH4 0xC7559974 EQ PUSH2 0x44A JUMPI DUP1 PUSH4 0xF2B49896 EQ PUSH2 0x495 JUMPI DUP1 PUSH4 0xF2FDE38B EQ PUSH2 0x4FF JUMPI PUSH1 0x0 DUP1 REVERT JUMPDEST DUP1 PUSH4 0x75A4D14C EQ PUSH2 0x2D2 JUMPI DUP1 PUSH4 0x83D1D052 EQ PUSH2 0x2F2 JUMPI DUP1 PUSH4 0x86D12AC9 EQ PUSH2 0x312 JUMPI DUP1 PUSH4 0x8DA5CB5B EQ PUSH2 0x332 JUMPI DUP1 PUSH4 0x9F4CB8F0 EQ PUSH2 0x35A JUMPI PUSH1 0x0 DUP1 REVERT JUMPDEST DUP1 PUSH4 0x4889E192 GT PUSH2 0xFD JUMPI DUP1 PUSH4 0x4889E192 EQ PUSH2 0x1F7 JUMPI DUP1 PUSH4 0x5A5A654C EQ PUSH2 0x23E JUMPI DUP1 PUSH4 0x64B4F751 EQ PUSH2 0x25E JUMPI DUP1 PUSH4 0x66FADF0B EQ PUSH2 0x278 JUMPI DUP1 PUSH4 0x6702F093 EQ PUSH2 0x29D JUMPI DUP1 PUSH4 0x715018A6 EQ PUSH2 0x2BD JUMPI PUSH1 0x0 DUP1 REVERT JUMPDEST DUP1 PUSH4 0x183196B EQ PUSH2 0x13A JUMPI DUP1 PUSH4 0x3B444AC EQ PUSH2 0x170 JUMPI DUP1 PUSH4 0x19FBE87E EQ PUSH2 0x193 JUMPI DUP1 PUSH4 0x3C4B9635 EQ PUSH2 0x1B5 JUMPI DUP1 PUSH4 0x3CCFD60B EQ PUSH2 0x1E2 JUMPI JUMPDEST PUSH1 0x0 DUP1 REVERT JUMPDEST CALLVALUE DUP1 ISZERO PUSH2 0x146 JUMPI PUSH1 0x0 DUP1 REVERT JUMPDEST POP PUSH2 0x15A PUSH2 0x155 CALLDATASIZE PUSH1 0x4 PUSH2 0x1DAF JUMP JUMPDEST PUSH2 0x51F JUMP JUMPDEST PUSH1 0x40 MLOAD PUSH2 0x167 SWAP2 SWAP1 PUSH2 0x1E72 JUMP JUMPDEST PUSH1 0x40 MLOAD DUP1 SWAP2 SUB SWAP1 RETURN JUMPDEST CALLVALUE DUP1 ISZERO PUSH2 0x17C JUMPI PUSH1 0x0 DUP1 REVERT JUMPDEST POP PUSH2 0x185 PUSH1 0x5 DUP2 JUMP JUMPDEST PUSH1 0x40 MLOAD SWAP1 DUP2 MSTORE PUSH1 0x20 ADD PUSH2 0x167 JUMP JUMPDEST CALLVALUE DUP1 ISZERO PUSH2 0x19F JUMPI PUSH1 0x0 DUP1 REVERT JUMPDEST POP PUSH2 0x1B3 PUSH2 0x1AE CALLDATASIZE PUSH1 0x4 PUSH2 0x1ECE JUMP JUMPDEST PUSH2 0x60E JUMP JUMPDEST STOP JUMPDEST CALLVALUE DUP1 ISZERO PUSH2 0x1C1 JUMPI PUSH1 0x0 DUP1 REVERT JUMPDEST POP PUSH2 0x1D5 PUSH2 0x1D0 CALLDATASIZE PUSH1 0x4 PUSH2 0x1F22 JUMP JUMPDEST PUSH2 0x910 JUMP JUMPDEST PUSH1 0x40 MLOAD PUSH2 0x167 SWAP2 SWAP1 PUSH2 0x1F3B JUMP JUMPDEST CALLVALUE DUP1 ISZERO PUSH2 0x1EE JUMPI PUSH1 0x0 DUP1 REVERT JUMPDEST POP PUSH2 0x1B3 PUSH2 0x9BC JUMP JUMPDEST CALLVALUE DUP1 ISZERO PUSH2 0x203 JUMPI PUSH1 0x0 DUP1 REVERT JUMPDEST POP PUSH2 0x217 PUSH2 0x212 CALLDATASIZE PUSH1 0x4 PUSH2 0x1F4E JUMP JUMPDEST PUSH2 0xA01 JUMP JUMPDEST PUSH1 0x40 DUP1 MLOAD PUSH1 0x1 PUSH1 0x1 PUSH1 0xA0 SHL SUB SWAP1 SWAP5 AND DUP5 MSTORE PUSH1 0x20 DUP5 ADD SWAP3 SWAP1 SWAP3 MSTORE ISZERO ISZERO SWAP1 DUP3 ADD MSTORE PUSH1 0x60 ADD PUSH2 0x167 JUMP JUMPDEST CALLVALUE DUP1 ISZERO PUSH2 0x24A JUMPI PUSH1 0x0 DUP1 REVERT JUMPDEST POP PUSH2 0x1D5 PUSH2 0x259 CALLDATASIZE PUSH1 0x4 PUSH2 0x1F22 JUMP JUMPDEST PUSH2 0xA83 JUMP JUMPDEST CALLVALUE DUP1 ISZERO PUSH2 0x26A JUMPI PUSH1 0x0 DUP1 REVERT JUMPDEST POP PUSH2 0x185 PUSH6 0x5AF3107A4000 DUP2 JUMP JUMPDEST CALLVALUE DUP1 ISZERO PUSH2 0x284 JUMPI PUSH1 0x0 DUP1 REVERT JUMPDEST POP PUSH2 0x28D PUSH2 0xA93 JUMP JUMPDEST PUSH1 0x40 MLOAD PUSH2 0x167 SWAP5 SWAP4 SWAP3 SWAP2 SWAP1 PUSH2 0x1F90 JUMP JUMPDEST CALLVALUE DUP1 ISZERO PUSH2 0x2A9 JUMPI PUSH1 0x0 DUP1 REVERT JUMPDEST POP PUSH2 0x1D5 PUSH2 0x2B8 CALLDATASIZE PUSH1 0x4 PUSH2 0x1F22 JUMP JUMPDEST PUSH2 0xDFB JUMP JUMPDEST CALLVALUE DUP1 ISZERO PUSH2 0x2C9 JUMPI PUSH1 0x0 DUP1 REVERT JUMPDEST POP PUSH2 0x1B3 PUSH2 0xE0B JUMP JUMPDEST CALLVALUE DUP1 ISZERO PUSH2 0x2DE JUMPI PUSH1 0x0 DUP1 REVERT JUMPDEST POP PUSH2 0x1D5 PUSH2 0x2ED CALLDATASIZE PUSH1 0x4 PUSH2 0x1FF9 JUMP JUMPDEST PUSH2 0xE1F JUMP JUMPDEST CALLVALUE DUP1 ISZERO PUSH2 0x2FE JUMPI PUSH1 0x0 DUP1 REVERT JUMPDEST POP PUSH2 0x1D5 PUSH2 0x30D CALLDATASIZE PUSH1 0x4 PUSH2 0x1F22 JUMP JUMPDEST PUSH2 0xE59 JUMP JUMPDEST CALLVALUE DUP1 ISZERO PUSH2 0x31E JUMPI PUSH1 0x0 DUP1 REVERT JUMPDEST POP PUSH2 0x1B3 PUSH2 0x32D CALLDATASIZE PUSH1 0x4 PUSH2 0x2071 JUMP JUMPDEST PUSH2 0xE69 JUMP JUMPDEST CALLVALUE DUP1 ISZERO PUSH2 0x33E JUMPI PUSH1 0x0 DUP1 REVERT JUMPDEST POP PUSH1 0x0 SLOAD PUSH1 0x40 MLOAD PUSH1 0x1 PUSH1 0x1 PUSH1 0xA0 SHL SUB SWAP1 SWAP2 AND DUP2 MSTORE PUSH1 0x20 ADD PUSH2 0x167 JUMP JUMPDEST CALLVALUE DUP1 ISZERO PUSH2 0x366 JUMPI PUSH1 0x0 DUP1 REVERT JUMPDEST POP PUSH2 0x1D5 PUSH2 0x375 CALLDATASIZE PUSH1 0x4 PUSH2 0x2135 JUMP JUMPDEST PUSH2 0x1090 JUMP JUMPDEST CALLVALUE DUP1 ISZERO PUSH2 0x386 JUMPI PUSH1 0x0 DUP1 REVERT JUMPDEST POP PUSH2 0x3D2 PUSH2 0x395 CALLDATASIZE PUSH1 0x4 PUSH2 0x1F22 JUMP JUMPDEST PUSH1 0x7 PUSH1 0x20 MSTORE PUSH1 0x0 SWAP1 DUP2 MSTORE PUSH1 0x40 SWAP1 KECCAK256 SLOAD PUSH1 0xFF DUP1 DUP3 AND SWAP2 PUSH2 0x100 DUP2 DIV DUP3 AND SWAP2 PUSH3 0x10000 DUP3 DIV DUP2 AND SWAP2 PUSH4 0x1000000 DUP2 DIV DUP3 AND SWAP2 PUSH5 0x100000000 SWAP1 SWAP2 DIV AND DUP6 JUMP JUMPDEST PUSH1 0x40 DUP1 MLOAD PUSH1 0xFF SWAP7 DUP8 AND DUP2 MSTORE SWAP5 DUP7 AND PUSH1 0x20 DUP7 ADD MSTORE SWAP3 DUP6 AND SWAP3 DUP5 ADD SWAP3 SWAP1 SWAP3 MSTORE SWAP1 SWAP3 AND PUSH1 0x60 DUP3 ADD MSTORE SWAP1 ISZERO ISZERO PUSH1 0x80 DUP3 ADD MSTORE PUSH1 0xA0 ADD PUSH2 0x167 JUMP JUMPDEST PUSH2 0x1B3 PUSH2 0x415 CALLDATASIZE PUSH1 0x4 PUSH2 0x215F JUMP JUMPDEST PUSH2 0x10C8 JUMP JUMPDEST CALLVALUE DUP1 ISZERO PUSH2 0x426 JUMPI PUSH1 0x0 DUP1 REVERT JUMPDEST POP PUSH2 0x43A PUSH2 0x435 CALLDATASIZE PUSH1 0x4 PUSH2 0x1F4E JUMP JUMPDEST PUSH2 0x152A JUMP JUMPDEST PUSH1 0x40 MLOAD PUSH2 0x167 SWAP5 SWAP4 SWAP3 SWAP2 SWAP1 PUSH2 0x217A JUMP JUMPDEST CALLVALUE DUP1 ISZERO PUSH2 0x456 JUMPI PUSH1 0x0 DUP1 REVERT JUMPDEST POP PUSH2 0x485 PUSH2 0x465 CALLDATASIZE PUSH1 0x4 PUSH2 0x21DD JUMP JUMPDEST DUP1 MLOAD PUSH1 0x20 DUP2 DUP4 ADD DUP2 ADD DUP1 MLOAD PUSH1 0x6 DUP3 MSTORE SWAP3 DUP3 ADD SWAP2 SWAP1 SWAP4 ADD KECCAK256 SWAP2 MSTORE SLOAD PUSH1 0xFF AND DUP2 JUMP JUMPDEST PUSH1 0x40 MLOAD SWAP1 ISZERO ISZERO DUP2 MSTORE PUSH1 0x20 ADD PUSH2 0x167 JUMP JUMPDEST CALLVALUE DUP1 ISZERO PUSH2 0x4A1 JUMPI PUSH1 0x0 DUP1 REVERT JUMPDEST POP PUSH2 0x4E0 PUSH2 0x4B0 CALLDATASIZE PUSH1 0x4 PUSH2 0x21DD JUMP JUMPDEST DUP1 MLOAD PUSH1 0x20 DUP2 DUP4 ADD DUP2 ADD DUP1 MLOAD PUSH1 0x5 DUP3 MSTORE SWAP3 DUP3 ADD SWAP2 SWAP1 SWAP4 ADD KECCAK256 SWAP2 MSTORE DUP1 SLOAD PUSH1 0x1 SWAP1 SWAP2 ADD SLOAD PUSH1 0x1 PUSH1 0x1 PUSH1 0xA0 SHL SUB SWAP1 SWAP2 AND SWAP1 DUP3 JUMP JUMPDEST PUSH1 0x40 DUP1 MLOAD PUSH1 0x1 PUSH1 0x1 PUSH1 0xA0 SHL SUB SWAP1 SWAP4 AND DUP4 MSTORE PUSH1 0x20 DUP4 ADD SWAP2 SWAP1 SWAP2 MSTORE ADD PUSH2 0x167 JUMP JUMPDEST CALLVALUE DUP1 ISZERO PUSH2 0x50B JUMPI PUSH1 0x0 DUP1 REVERT JUMPDEST POP PUSH2 0x1B3 PUSH2 0x51A CALLDATASIZE PUSH1 0x4 PUSH2 0x1DAF JUMP JUMPDEST PUSH2 0x19EE JUMP JUMPDEST PUSH1 0x1 PUSH1 0x1 PUSH1 0xA0 SHL SUB DUP2 AND PUSH1 0x0 SWAP1 DUP2 MSTORE PUSH1 0x8 PUSH1 0x20 SWAP1 DUP2 MSTORE PUSH1 0x40 DUP1 DUP4 KECCAK256 DUP1 SLOAD DUP3 MLOAD DUP2 DUP6 MUL DUP2 ADD DUP6 ADD SWAP1 SWAP4 MSTORE DUP1 DUP4 MSTORE PUSH1 0x60 SWAP5 SWAP3 SWAP4 SWAP2 SWAP3 SWAP1 SWAP2 DUP5 ADD JUMPDEST DUP3 DUP3 LT ISZERO PUSH2 0x603 JUMPI DUP4 DUP3 SWAP1 PUSH1 0x0 MSTORE PUSH1 0x20 PUSH1 0x0 KECCAK256 ADD DUP1 SLOAD PUSH2 0x576 SWAP1 PUSH2 0x228E JUMP JUMPDEST DUP1 PUSH1 0x1F ADD PUSH1 0x20 DUP1 SWAP2 DIV MUL PUSH1 0x20 ADD PUSH1 0x40 MLOAD SWAP1 DUP2 ADD PUSH1 0x40 MSTORE DUP1 SWAP3 SWAP2 SWAP1 DUP2 DUP2 MSTORE PUSH1 0x20 ADD DUP3 DUP1 SLOAD PUSH2 0x5A2 SWAP1 PUSH2 0x228E JUMP JUMPDEST DUP1 ISZERO PUSH2 0x5EF JUMPI DUP1 PUSH1 0x1F LT PUSH2 0x5C4 JUMPI PUSH2 0x100 DUP1 DUP4 SLOAD DIV MUL DUP4 MSTORE SWAP2 PUSH1 0x20 ADD SWAP2 PUSH2 0x5EF JUMP JUMPDEST DUP3 ADD SWAP2 SWAP1 PUSH1 0x0 MSTORE PUSH1 0x20 PUSH1 0x0 KECCAK256 SWAP1 JUMPDEST DUP2 SLOAD DUP2 MSTORE SWAP1 PUSH1 0x1 ADD SWAP1 PUSH1 0x20 ADD DUP1 DUP4 GT PUSH2 0x5D2 JUMPI DUP3 SWAP1 SUB PUSH1 0x1F AND DUP3 ADD SWAP2 JUMPDEST POP POP POP POP POP DUP2 MSTORE PUSH1 0x20 ADD SWAP1 PUSH1 0x1 ADD SWAP1 PUSH2 0x557 JUMP JUMPDEST POP POP POP POP SWAP1 POP SWAP2 SWAP1 POP JUMP JUMPDEST PUSH1 0x6 DUP4 DUP4 PUSH1 0x40 MLOAD PUSH2 0x620 SWAP3 SWAP2 SWAP1 PUSH2 0x22C8 JUMP JUMPDEST SWAP1 DUP2 MSTORE PUSH1 0x40 MLOAD SWAP1 DUP2 SWAP1 SUB PUSH1 0x20 ADD SWAP1 KECCAK256 SLOAD PUSH1 0xFF AND PUSH2 0x67C JUMPI PUSH1 0x40 MLOAD PUSH3 0x461BCD PUSH1 0xE5 SHL DUP2 MSTORE PUSH1 0x20 PUSH1 0x4 DUP3 ADD MSTORE PUSH1 0x15 PUSH1 0x24 DUP3 ADD MSTORE PUSH21 0x111BDB585A5B88191BD95CC81B9BDD08195E1A5CDD PUSH1 0x5A SHL PUSH1 0x44 DUP3 ADD MSTORE PUSH1 0x64 ADD JUMPDEST PUSH1 0x40 MLOAD DUP1 SWAP2 SUB SWAP1 REVERT JUMPDEST CALLER PUSH1 0x1 PUSH1 0x1 PUSH1 0xA0 SHL SUB AND PUSH1 0x5 DUP5 DUP5 PUSH1 0x40 MLOAD PUSH2 0x698 SWAP3 SWAP2 SWAP1 PUSH2 0x22C8 JUMP JUMPDEST SWAP1 DUP2 MSTORE PUSH1 0x40 MLOAD SWAP1 DUP2 SWAP1 SUB PUSH1 0x20 ADD SWAP1 KECCAK256 SLOAD PUSH1 0x1 PUSH1 0x1 PUSH1 0xA0 SHL SUB AND EQ PUSH2 0x6F1 JUMPI PUSH1 0x40 MLOAD PUSH3 0x461BCD PUSH1 0xE5 SHL DUP2 MSTORE PUSH1 0x20 PUSH1 0x4 DUP3 ADD MSTORE PUSH1 0x10 PUSH1 0x24 DUP3 ADD MSTORE PUSH16 0x2737BA103237B6B0B4B71037BBB732B9 PUSH1 0x81 SHL PUSH1 0x44 DUP3 ADD MSTORE PUSH1 0x64 ADD PUSH2 0x673 JUMP JUMPDEST CALLER PUSH1 0x0 SWAP1 DUP2 MSTORE PUSH1 0x8 PUSH1 0x20 MSTORE PUSH1 0x40 DUP2 KECCAK256 DUP1 SLOAD SWAP1 SWAP2 JUMPDEST DUP2 DUP2 LT ISZERO PUSH2 0x802 JUMPI DUP6 DUP6 PUSH1 0x40 MLOAD PUSH2 0x71D SWAP3 SWAP2 SWAP1 PUSH2 0x22C8 JUMP JUMPDEST PUSH1 0x40 MLOAD DUP1 SWAP2 SUB SWAP1 KECCAK256 DUP4 DUP3 DUP2 SLOAD DUP2 LT PUSH2 0x737 JUMPI PUSH2 0x737 PUSH2 0x22D8 JUMP JUMPDEST SWAP1 PUSH1 0x0 MSTORE PUSH1 0x20 PUSH1 0x0 KECCAK256 ADD PUSH1 0x40 MLOAD PUSH2 0x74E SWAP2 SWAP1 PUSH2 0x2361 JUMP JUMPDEST PUSH1 0x40 MLOAD DUP1 SWAP2 SUB SWAP1 KECCAK256 SUB PUSH2 0x7F0 JUMPI PUSH2 0x766 PUSH1 0x1 DUP4 PUSH2 0x2383 JUMP JUMPDEST DUP2 LT ISZERO PUSH2 0x7BD JUMPI DUP3 PUSH2 0x779 PUSH1 0x1 DUP5 PUSH2 0x2383 JUMP JUMPDEST DUP2 SLOAD DUP2 LT PUSH2 0x789 JUMPI PUSH2 0x789 PUSH2 0x22D8 JUMP JUMPDEST SWAP1 PUSH1 0x0 MSTORE PUSH1 0x20 PUSH1 0x0 KECCAK256 ADD DUP4 DUP3 DUP2 SLOAD DUP2 LT PUSH2 0x7A5 JUMPI PUSH2 0x7A5 PUSH2 0x22D8 JUMP JUMPDEST SWAP1 PUSH1 0x0 MSTORE PUSH1 0x20 PUSH1 0x0 KECCAK256 ADD SWAP1 DUP2 PUSH2 0x7BB SWAP2 SWAP1 PUSH2 0x23FA JUMP JUMPDEST POP JUMPDEST DUP3 DUP1 SLOAD DUP1 PUSH2 0x7CD JUMPI PUSH2 0x7CD PUSH2 0x24D5 JUMP JUMPDEST PUSH1 0x1 SWAP1 SUB DUP2 DUP2 SWAP1 PUSH1 0x0 MSTORE PUSH1 0x20 PUSH1 0x0 KECCAK256 ADD PUSH1 0x0 PUSH2 0x7E9 SWAP2 SWAP1 PUSH2 0x1D05 JUMP JUMPDEST SWAP1 SSTORE PUSH2 0x802 JUMP JUMPDEST DUP1 PUSH2 0x7FA DUP2 PUSH2 0x24EB JUMP JUMPDEST SWAP2 POP POP PUSH2 0x705 JUMP JUMPDEST POP PUSH1 0x1 PUSH1 0x1 PUSH1 0xA0 SHL SUB DUP4 AND PUSH1 0x0 SWAP1 DUP2 MSTORE PUSH1 0x8 PUSH1 0x20 MSTORE PUSH1 0x40 SWAP1 KECCAK256 DUP1 SLOAD PUSH1 0x5 GT PUSH2 0x86C JUMPI PUSH1 0x40 MLOAD PUSH3 0x461BCD PUSH1 0xE5 SHL DUP2 MSTORE PUSH1 0x20 PUSH1 0x4 DUP3 ADD MSTORE PUSH1 0x1E PUSH1 0x24 DUP3 ADD MSTORE PUSH32 0x526563697069656E742068617320746F6F206D616E7920646F6D61696E730000 PUSH1 0x44 DUP3 ADD MSTORE PUSH1 0x64 ADD PUSH2 0x673 JUMP JUMPDEST DUP1 SLOAD PUSH1 0x1 DUP2 ADD DUP3 SSTORE PUSH1 0x0 DUP3 DUP2 MSTORE PUSH1 0x20 SWAP1 KECCAK256 ADD PUSH2 0x889 DUP7 DUP9 DUP4 PUSH2 0x2504 JUMP JUMPDEST POP DUP4 PUSH1 0x5 DUP8 DUP8 PUSH1 0x40 MLOAD PUSH2 0x89D SWAP3 SWAP2 SWAP1 PUSH2 0x22C8 JUMP JUMPDEST SWAP1 DUP2 MSTORE PUSH1 0x40 MLOAD SWAP1 DUP2 SWAP1 SUB PUSH1 0x20 ADD DUP2 KECCAK256 DUP1 SLOAD PUSH1 0x1 PUSH1 0x1 PUSH1 0xA0 SHL SUB SWAP4 SWAP1 SWAP4 AND PUSH1 0x1 PUSH1 0x1 PUSH1 0xA0 SHL SUB NOT SWAP1 SWAP4 AND SWAP3 SWAP1 SWAP3 OR SWAP1 SWAP2 SSTORE PUSH32 0xB93E5AB0838892891D936AA278BD882AAA1C862433C9FF605A2FB0CD0B9D4E11 SWAP1 PUSH2 0x900 SWAP1 DUP9 SWAP1 DUP9 SWAP1 CALLER SWAP1 DUP10 SWAP1 PUSH2 0x25BE JUMP JUMPDEST PUSH1 0x40 MLOAD DUP1 SWAP2 SUB SWAP1 LOG1 POP POP POP POP POP POP JUMP JUMPDEST PUSH1 0x2 DUP2 DUP2 SLOAD DUP2 LT PUSH2 0x920 JUMPI PUSH1 0x0 DUP1 REVERT JUMPDEST SWAP1 PUSH1 0x0 MSTORE PUSH1 0x20 PUSH1 0x0 KECCAK256 ADD PUSH1 0x0 SWAP2 POP SWAP1 POP DUP1 SLOAD PUSH2 0x93B SWAP1 PUSH2 0x228E JUMP JUMPDEST DUP1 PUSH1 0x1F ADD PUSH1 0x20 DUP1 SWAP2 DIV MUL PUSH1 0x20 ADD PUSH1 0x40 MLOAD SWAP1 DUP2 ADD PUSH1 0x40 MSTORE DUP1 SWAP3 SWAP2 SWAP1 DUP2 DUP2 MSTORE PUSH1 0x20 ADD DUP3 DUP1 SLOAD PUSH2 0x967 SWAP1 PUSH2 0x228E JUMP JUMPDEST DUP1 ISZERO PUSH2 0x9B4 JUMPI DUP1 PUSH1 0x1F LT PUSH2 0x989 JUMPI PUSH2 0x100 DUP1 DUP4 SLOAD DIV MUL DUP4 MSTORE SWAP2 PUSH1 0x20 ADD SWAP2 PUSH2 0x9B4 JUMP JUMPDEST DUP3 ADD SWAP2 SWAP1 PUSH1 0x0 MSTORE PUSH1 0x20 PUSH1 0x0 KECCAK256 SWAP1 JUMPDEST DUP2 SLOAD DUP2 MSTORE SWAP1 PUSH1 0x1 ADD SWAP1 PUSH1 0x20 ADD DUP1 DUP4 GT PUSH2 0x997 JUMPI DUP3 SWAP1 SUB PUSH1 0x1F AND DUP3 ADD SWAP2 JUMPDEST POP POP POP POP POP DUP2 JUMP JUMPDEST PUSH2 0x9C4 PUSH2 0x1A64 JUMP JUMPDEST PUSH1 0x0 DUP1 SLOAD PUSH1 0x40 MLOAD PUSH1 0x1 PUSH1 0x1 PUSH1 0xA0 SHL SUB SWAP1 SWAP2 AND SWAP2 SELFBALANCE DUP1 ISZERO PUSH2 0x8FC MUL SWAP3 SWAP1 SWAP2 DUP2 DUP2 DUP2 DUP6 DUP9 DUP9 CALL SWAP4 POP POP POP POP ISZERO DUP1 ISZERO PUSH2 0x9FE JUMPI RETURNDATASIZE PUSH1 0x0 DUP1 RETURNDATACOPY RETURNDATASIZE PUSH1 0x0 REVERT JUMPDEST POP JUMP JUMPDEST PUSH1 0x0 DUP1 PUSH1 0x0 DUP1 PUSH1 0x5 DUP7 DUP7 PUSH1 0x40 MLOAD PUSH2 0xA19 SWAP3 SWAP2 SWAP1 PUSH2 0x22C8 JUMP JUMPDEST SWAP1 DUP2 MSTORE PUSH1 0x40 DUP1 MLOAD SWAP2 DUP3 SWAP1 SUB PUSH1 0x20 SWAP1 DUP2 ADD DUP4 KECCAK256 DUP4 DUP4 ADD DUP4 MSTORE DUP1 SLOAD PUSH1 0x1 PUSH1 0x1 PUSH1 0xA0 SHL SUB AND DUP1 DUP6 MSTORE PUSH1 0x1 SWAP1 SWAP2 ADD SLOAD SWAP2 DUP5 ADD DUP3 SWAP1 MSTORE SWAP2 MLOAD SWAP3 SWAP4 POP SWAP1 SWAP2 PUSH1 0x6 SWAP1 PUSH2 0xA61 SWAP1 DUP11 SWAP1 DUP11 SWAP1 PUSH2 0x22C8 JUMP JUMPDEST SWAP1 DUP2 MSTORE PUSH1 0x40 MLOAD SWAP1 DUP2 SWAP1 SUB PUSH1 0x20 ADD SWAP1 KECCAK256 SLOAD SWAP2 SWAP6 POP SWAP4 POP PUSH1 0xFF AND SWAP2 POP POP SWAP3 POP SWAP3 POP SWAP3 JUMP JUMPDEST PUSH1 0x4 DUP2 DUP2 SLOAD DUP2 LT PUSH2 0x920 JUMPI PUSH1 0x0 DUP1 REVERT JUMPDEST PUSH1 0x60 DUP1 PUSH1 0x60 DUP1 PUSH1 0x1 PUSH1 0x2 PUSH1 0x3 PUSH1 0x4 DUP4 DUP1 SLOAD DUP1 PUSH1 0x20 MUL PUSH1 0x20 ADD PUSH1 0x40 MLOAD SWAP1 DUP2 ADD PUSH1 0x40 MSTORE DUP1 SWAP3 SWAP2 SWAP1 DUP2 DUP2 MSTORE PUSH1 0x20 ADD PUSH1 0x0 SWAP1 JUMPDEST DUP3 DUP3 LT ISZERO PUSH2 0xB6E JUMPI DUP4 DUP3 SWAP1 PUSH1 0x0 MSTORE PUSH1 0x20 PUSH1 0x0 KECCAK256 ADD DUP1 SLOAD PUSH2 0xAE1 SWAP1 PUSH2 0x228E JUMP JUMPDEST DUP1 PUSH1 0x1F ADD PUSH1 0x20 DUP1 SWAP2 DIV MUL PUSH1 0x20 ADD PUSH1 0x40 MLOAD SWAP1 DUP2 ADD PUSH1 0x40 MSTORE DUP1 SWAP3 SWAP2 SWAP1 DUP2 DUP2 MSTORE PUSH1 0x20 ADD DUP3 DUP1 SLOAD PUSH2 0xB0D SWAP1 PUSH2 0x228E JUMP JUMPDEST DUP1 ISZERO PUSH2 0xB5A JUMPI DUP1 PUSH1 0x1F LT PUSH2 0xB2F JUMPI PUSH2 0x100 DUP1 DUP4 SLOAD DIV MUL DUP4 MSTORE SWAP2 PUSH1 0x20 ADD SWAP2 PUSH2 0xB5A JUMP JUMPDEST DUP3 ADD SWAP2 SWAP1 PUSH1 0x0 MSTORE PUSH1 0x20 PUSH1 0x0 KECCAK256 SWAP1 JUMPDEST DUP2 SLOAD DUP2 MSTORE SWAP1 PUSH1 0x1 ADD SWAP1 PUSH1 0x20 ADD DUP1 DUP4 GT PUSH2 0xB3D JUMPI DUP3 SWAP1 SUB PUSH1 0x1F AND DUP3 ADD SWAP2 JUMPDEST POP POP POP POP POP DUP2 MSTORE PUSH1 0x20 ADD SWAP1 PUSH1 0x1 ADD SWAP1 PUSH2 0xAC2 JUMP JUMPDEST POP POP POP POP SWAP4 POP DUP3 DUP1 SLOAD DUP1 PUSH1 0x20 MUL PUSH1 0x20 ADD PUSH1 0x40 MLOAD SWAP1 DUP2 ADD PUSH1 0x40 MSTORE DUP1 SWAP3 SWAP2 SWAP1 DUP2 DUP2 MSTORE PUSH1 0x20 ADD PUSH1 0x0 SWAP1 JUMPDEST DUP3 DUP3 LT ISZERO PUSH2 0xC41 JUMPI DUP4 DUP3 SWAP1 PUSH1 0x0 MSTORE PUSH1 0x20 PUSH1 0x0 KECCAK256 ADD DUP1 SLOAD PUSH2 0xBB4 SWAP1 PUSH2 0x228E JUMP JUMPDEST DUP1 PUSH1 0x1F ADD PUSH1 0x20 DUP1 SWAP2 DIV MUL PUSH1 0x20 ADD PUSH1 0x40 MLOAD SWAP1 DUP2 ADD PUSH1 0x40 MSTORE DUP1 SWAP3 SWAP2 SWAP1 DUP2 DUP2 MSTORE PUSH1 0x20 ADD DUP3 DUP1 SLOAD PUSH2 0xBE0 SWAP1 PUSH2 0x228E JUMP JUMPDEST DUP1 ISZERO PUSH2 0xC2D JUMPI DUP1 PUSH1 0x1F LT PUSH2 0xC02 JUMPI PUSH2 0x100 DUP1 DUP4 SLOAD DIV MUL DUP4 MSTORE SWAP2 PUSH1 0x20 ADD SWAP2 PUSH2 0xC2D JUMP JUMPDEST DUP3 ADD SWAP2 SWAP1 PUSH1 0x0 MSTORE PUSH1 0x20 PUSH1 0x0 KECCAK256 SWAP1 JUMPDEST DUP2 SLOAD DUP2 MSTORE SWAP1 PUSH1 0x1 ADD SWAP1 PUSH1 0x20 ADD DUP1 DUP4 GT PUSH2 0xC10 JUMPI DUP3 SWAP1 SUB PUSH1 0x1F AND DUP3 ADD SWAP2 JUMPDEST POP POP POP POP POP DUP2 MSTORE PUSH1 0x20 ADD SWAP1 PUSH1 0x1 ADD SWAP1 PUSH2 0xB95 JUMP JUMPDEST POP POP POP POP SWAP3 POP DUP2 DUP1 SLOAD DUP1 PUSH1 0x20 MUL PUSH1 0x20 ADD PUSH1 0x40 MLOAD SWAP1 DUP2 ADD PUSH1 0x40 MSTORE DUP1 SWAP3 SWAP2 SWAP1 DUP2 DUP2 MSTORE PUSH1 0x20 ADD PUSH1 0x0 SWAP1 JUMPDEST DUP3 DUP3 LT ISZERO PUSH2 0xD14 JUMPI DUP4 DUP3 SWAP1 PUSH1 0x0 MSTORE PUSH1 0x20 PUSH1 0x0 KECCAK256 ADD DUP1 SLOAD PUSH2 0xC87 SWAP1 PUSH2 0x228E JUMP JUMPDEST DUP1 PUSH1 0x1F ADD PUSH1 0x20 DUP1 SWAP2 DIV MUL PUSH1 0x20 ADD PUSH1 0x40 MLOAD SWAP1 DUP2 ADD PUSH1 0x40 MSTORE DUP1 SWAP3 SWAP2 SWAP1 DUP2 DUP2 MSTORE PUSH1 0x20 ADD DUP3 DUP1 SLOAD PUSH2 0xCB3 SWAP1 PUSH2 0x228E JUMP JUMPDEST DUP1 ISZERO PUSH2 0xD00 JUMPI DUP1 PUSH1 0x1F LT PUSH2 0xCD5 JUMPI PUSH2 0x100 DUP1 DUP4 SLOAD DIV MUL DUP4 MSTORE SWAP2 PUSH1 0x20 ADD SWAP2 PUSH2 0xD00 JUMP JUMPDEST DUP3 ADD SWAP2 SWAP1 PUSH1 0x0 MSTORE PUSH1 0x20 PUSH1 0x0 KECCAK256 SWAP1 JUMPDEST DUP2 SLOAD DUP2 MSTORE SWAP1 PUSH1 0x1 ADD SWAP1 PUSH1 0x20 ADD DUP1 DUP4 GT PUSH2 0xCE3 JUMPI DUP3 SWAP1 SUB PUSH1 0x1F AND DUP3 ADD SWAP2 JUMPDEST POP POP POP POP POP DUP2 MSTORE PUSH1 0x20 ADD SWAP1 PUSH1 0x1 ADD SWAP1 PUSH2 0xC68 JUMP JUMPDEST POP POP POP POP SWAP2 POP DUP1 DUP1 SLOAD DUP1 PUSH1 0x20 MUL PUSH1 0x20 ADD PUSH1 0x40 MLOAD SWAP1 DUP2 ADD PUSH1 0x40 MSTORE DUP1 SWAP3 SWAP2 SWAP1 DUP2 DUP2 MSTORE PUSH1 0x20 ADD PUSH1 0x0 SWAP1 JUMPDEST DUP3 DUP3 LT ISZERO PUSH2 0xDE7 JUMPI DUP4 DUP3 SWAP1 PUSH1 0x0 MSTORE PUSH1 0x20 PUSH1 0x0 KECCAK256 ADD DUP1 SLOAD PUSH2 0xD5A SWAP1 PUSH2 0x228E JUMP JUMPDEST DUP1 PUSH1 0x1F ADD PUSH1 0x20 DUP1 SWAP2 DIV MUL PUSH1 0x20 ADD PUSH1 0x40 MLOAD SWAP1 DUP2 ADD PUSH1 0x40 MSTORE DUP1 SWAP3 SWAP2 SWAP1 DUP2 DUP2 MSTORE PUSH1 0x20 ADD DUP3 DUP1 SLOAD PUSH2 0xD86 SWAP1 PUSH2 0x228E JUMP JUMPDEST DUP1 ISZERO PUSH2 0xDD3 JUMPI DUP1 PUSH1 0x1F LT PUSH2 0xDA8 JUMPI PUSH2 0x100 DUP1 DUP4 SLOAD DIV MUL DUP4 MSTORE SWAP2 PUSH1 0x20 ADD SWAP2 PUSH2 0xDD3 JUMP JUMPDEST DUP3 ADD SWAP2 SWAP1 PUSH1 0x0 MSTORE PUSH1 0x20 PUSH1 0x0 KECCAK256 SWAP1 JUMPDEST DUP2 SLOAD DUP2 MSTORE SWAP1 PUSH1 0x1 ADD SWAP1 PUSH1 0x20 ADD DUP1 DUP4 GT PUSH2 0xDB6 JUMPI DUP3 SWAP1 SUB PUSH1 0x1F AND DUP3 ADD SWAP2 JUMPDEST POP POP POP POP POP DUP2 MSTORE PUSH1 0x20 ADD SWAP1 PUSH1 0x1 ADD SWAP1 PUSH2 0xD3B JUMP JUMPDEST POP POP POP POP SWAP1 POP SWAP4 POP SWAP4 POP SWAP4 POP SWAP4 POP SWAP1 SWAP2 SWAP3 SWAP4 JUMP JUMPDEST PUSH1 0x1 DUP2 DUP2 SLOAD DUP2 LT PUSH2 0x920 JUMPI PUSH1 0x0 DUP1 REVERT JUMPDEST PUSH2 0xE13 PUSH2 0x1A64 JUMP JUMPDEST PUSH2 0xE1D PUSH1 0x0 PUSH2 0x1ABE JUMP JUMPDEST JUMP JUMPDEST PUSH1 0x4 SLOAD PUSH1 0x60 SWAP1 PUSH1 0xFF DUP4 AND LT PUSH2 0xE46 JUMPI PUSH1 0x40 MLOAD PUSH3 0x461BCD PUSH1 0xE5 SHL DUP2 MSTORE PUSH1 0x4 ADD PUSH2 0x673 SWAP1 PUSH2 0x2605 JUMP JUMPDEST PUSH2 0xE51 DUP5 DUP5 DUP5 PUSH2 0x1B0E JUMP JUMPDEST SWAP5 SWAP4 POP POP POP POP JUMP JUMPDEST PUSH1 0x3 DUP2 DUP2 SLOAD DUP2 LT PUSH2 0x920 JUMPI PUSH1 0x0 DUP1 REVERT JUMPDEST PUSH2 0xE71 PUSH2 0x1A64 JUMP JUMPDEST PUSH2 0xE7D PUSH1 0x1 PUSH1 0x0 PUSH2 0x1D3F JUMP JUMPDEST PUSH2 0xE89 PUSH1 0x2 PUSH1 0x0 PUSH2 0x1D3F JUMP JUMPDEST PUSH2 0xE95 PUSH1 0x3 PUSH1 0x0 PUSH2 0x1D3F JUMP JUMPDEST PUSH2 0xEA1 PUSH1 0x4 PUSH1 0x0 PUSH2 0x1D3F JUMP JUMPDEST PUSH1 0x0 JUMPDEST DUP8 DUP2 LT ISZERO PUSH2 0xF05 JUMPI PUSH1 0x1 DUP10 DUP10 DUP4 DUP2 DUP2 LT PUSH2 0xEC0 JUMPI PUSH2 0xEC0 PUSH2 0x22D8 JUMP JUMPDEST SWAP1 POP PUSH1 0x20 MUL DUP2 ADD SWAP1 PUSH2 0xED2 SWAP2 SWAP1 PUSH2 0x2632 JUMP JUMPDEST DUP3 SLOAD PUSH1 0x1 DUP2 ADD DUP5 SSTORE PUSH1 0x0 SWAP4 DUP5 MSTORE PUSH1 0x20 SWAP1 SWAP4 KECCAK256 SWAP1 SWAP3 ADD SWAP2 PUSH2 0xEF2 SWAP2 DUP4 PUSH2 0x2504 JUMP JUMPDEST POP DUP1 PUSH2 0xEFD DUP2 PUSH2 0x24EB JUMP JUMPDEST SWAP2 POP POP PUSH2 0xEA4 JUMP JUMPDEST POP PUSH1 0x0 JUMPDEST DUP6 DUP2 LT ISZERO PUSH2 0xF6A JUMPI PUSH1 0x2 DUP8 DUP8 DUP4 DUP2 DUP2 LT PUSH2 0xF25 JUMPI PUSH2 0xF25 PUSH2 0x22D8 JUMP JUMPDEST SWAP1 POP PUSH1 0x20 MUL DUP2 ADD SWAP1 PUSH2 0xF37 SWAP2 SWAP1 PUSH2 0x2632 JUMP JUMPDEST DUP3 SLOAD PUSH1 0x1 DUP2 ADD DUP5 SSTORE PUSH1 0x0 SWAP4 DUP5 MSTORE PUSH1 0x20 SWAP1 SWAP4 KECCAK256 SWAP1 SWAP3 ADD SWAP2 PUSH2 0xF57 SWAP2 DUP4 PUSH2 0x2504 JUMP JUMPDEST POP DUP1 PUSH2 0xF62 DUP2 PUSH2 0x24EB JUMP JUMPDEST SWAP2 POP POP PUSH2 0xF09 JUMP JUMPDEST POP PUSH1 0x0 JUMPDEST DUP4 DUP2 LT ISZERO PUSH2 0xFCF JUMPI PUSH1 0x3 DUP6 DUP6 DUP4 DUP2 DUP2 LT PUSH2 0xF8A JUMPI PUSH2 0xF8A PUSH2 0x22D8 JUMP JUMPDEST SWAP1 POP PUSH1 0x20 MUL DUP2 ADD SWAP1 PUSH2 0xF9C SWAP2 SWAP1 PUSH2 0x2632 JUMP JUMPDEST DUP3 SLOAD PUSH1 0x1 DUP2 ADD DUP5 SSTORE PUSH1 0x0 SWAP4 DUP5 MSTORE PUSH1 0x20 SWAP1 SWAP4 KECCAK256 SWAP1 SWAP3 ADD SWAP2 PUSH2 0xFBC SWAP2 DUP4 PUSH2 0x2504 JUMP JUMPDEST POP DUP1 PUSH2 0xFC7 DUP2 PUSH2 0x24EB JUMP JUMPDEST SWAP2 POP POP PUSH2 0xF6E JUMP JUMPDEST POP PUSH1 0x0 JUMPDEST DUP2 DUP2 LT ISZERO PUSH2 0x1034 JUMPI PUSH1 0x4 DUP4 DUP4 DUP4 DUP2 DUP2 LT PUSH2 0xFEF JUMPI PUSH2 0xFEF PUSH2 0x22D8 JUMP JUMPDEST SWAP1 POP PUSH1 0x20 MUL DUP2 ADD SWAP1 PUSH2 0x1001 SWAP2 SWAP1 PUSH2 0x2632 JUMP JUMPDEST DUP3 SLOAD PUSH1 0x1 DUP2 ADD DUP5 SSTORE PUSH1 0x0 SWAP4 DUP5 MSTORE PUSH1 0x20 SWAP1 SWAP4 KECCAK256 SWAP1 SWAP3 ADD SWAP2 PUSH2 0x1021 SWAP2 DUP4 PUSH2 0x2504 JUMP JUMPDEST POP DUP1 PUSH2 0x102C DUP2 PUSH2 0x24EB JUMP JUMPDEST SWAP2 POP POP PUSH2 0xFD3 JUMP JUMPDEST POP PUSH1 0x1 SLOAD PUSH1 0x2 SLOAD PUSH1 0x3 SLOAD PUSH1 0x4 SLOAD PUSH1 0x40 DUP1 MLOAD SWAP5 DUP6 MSTORE PUSH1 0x20 DUP6 ADD SWAP4 SWAP1 SWAP4 MSTORE SWAP2 DUP4 ADD MSTORE PUSH1 0x60 DUP3 ADD MSTORE PUSH32 0xCE864CFD624E853188C537167AF6415AC7DE7477451BE5B5483B10465ED32A24 SWAP1 PUSH1 0x80 ADD PUSH1 0x40 MLOAD DUP1 SWAP2 SUB SWAP1 LOG1 POP POP POP POP POP POP POP POP JUMP JUMPDEST PUSH1 0x8 PUSH1 0x20 MSTORE DUP2 PUSH1 0x0 MSTORE PUSH1 0x40 PUSH1 0x0 KECCAK256 DUP2 DUP2 SLOAD DUP2 LT PUSH2 0x10AC JUMPI PUSH1 0x0 DUP1 REVERT JUMPDEST SWAP1 PUSH1 0x0 MSTORE PUSH1 0x20 PUSH1 0x0 KECCAK256 ADD PUSH1 0x0 SWAP2 POP SWAP2 POP POP DUP1 SLOAD PUSH2 0x93B SWAP1 PUSH2 0x228E JUMP JUMPDEST PUSH6 0x5AF3107A4000 CALLVALUE LT ISZERO PUSH2 0x1115 JUMPI PUSH1 0x40 MLOAD PUSH3 0x461BCD PUSH1 0xE5 SHL DUP2 MSTORE PUSH1 0x20 PUSH1 0x4 DUP3 ADD MSTORE PUSH1 0x14 PUSH1 0x24 DUP3 ADD MSTORE PUSH20 0x125B9CDD59999A58DA595B9D081C185E5B595B9D PUSH1 0x62 SHL PUSH1 0x44 DUP3 ADD MSTORE PUSH1 0x64 ADD PUSH2 0x673 JUMP JUMPDEST CALLER PUSH1 0x0 SWAP1 DUP2 MSTORE PUSH1 0x8 PUSH1 0x20 MSTORE PUSH1 0x40 SWAP1 KECCAK256 DUP1 SLOAD PUSH1 0x5 GT PUSH2 0x1168 JUMPI PUSH1 0x40 MLOAD PUSH3 0x461BCD PUSH1 0xE5 SHL DUP2 MSTORE PUSH1 0x20 PUSH1 0x4 DUP3 ADD MSTORE PUSH1 0x10 PUSH1 0x24 DUP3 ADD MSTORE PUSH16 0x546F6F206D616E7920646F6D61696E73 PUSH1 0x80 SHL PUSH1 0x44 DUP3 ADD MSTORE PUSH1 0x64 ADD PUSH2 0x673 JUMP JUMPDEST PUSH1 0x1 SLOAD ISZERO DUP1 ISZERO SWAP1 PUSH2 0x117A JUMPI POP PUSH1 0x2 SLOAD ISZERO ISZERO JUMPDEST DUP1 ISZERO PUSH2 0x1187 JUMPI POP PUSH1 0x3 SLOAD ISZERO ISZERO JUMPDEST DUP1 ISZERO PUSH2 0x1197 JUMPI POP PUSH1 0x4 SLOAD PUSH1 0xFF DUP4 AND LT JUMPDEST PUSH2 0x11ED JUMPI PUSH1 0x40 MLOAD PUSH3 0x461BCD PUSH1 0xE5 SHL DUP2 MSTORE PUSH1 0x20 PUSH1 0x4 DUP3 ADD MSTORE PUSH1 0x21 PUSH1 0x24 DUP3 ADD MSTORE PUSH32 0x496E76616C696420636F6D706F6E656E7473206F7220636861696E20696E6465 PUSH1 0x44 DUP3 ADD MSTORE PUSH1 0xF PUSH1 0xFB SHL PUSH1 0x64 DUP3 ADD MSTORE PUSH1 0x84 ADD PUSH2 0x673 JUMP JUMPDEST CALLER PUSH1 0x0 SWAP1 DUP2 MSTORE PUSH1 0x9 PUSH1 0x20 MSTORE PUSH1 0x40 DUP2 KECCAK256 DUP1 SLOAD SWAP2 PUSH2 0x1208 DUP4 PUSH2 0x24EB JUMP JUMPDEST SWAP1 SWAP2 SSTORE POP POP CALLER PUSH1 0x0 DUP2 DUP2 MSTORE PUSH1 0x9 PUSH1 0x20 MSTORE PUSH1 0x40 DUP2 KECCAK256 SLOAD SWAP1 SWAP2 PUSH2 0x1229 SWAP2 DUP6 PUSH2 0x1B0E JUMP JUMPDEST SWAP1 POP PUSH1 0x6 DUP2 PUSH1 0x40 MLOAD PUSH2 0x123B SWAP2 SWAP1 PUSH2 0x2679 JUMP JUMPDEST SWAP1 DUP2 MSTORE PUSH1 0x40 MLOAD SWAP1 DUP2 SWAP1 SUB PUSH1 0x20 ADD SWAP1 KECCAK256 SLOAD PUSH1 0xFF AND ISZERO PUSH2 0x12A9 JUMPI PUSH1 0x40 MLOAD PUSH3 0x461BCD PUSH1 0xE5 SHL DUP2 MSTORE PUSH1 0x20 PUSH1 0x4 DUP3 ADD MSTORE PUSH1 0x25 PUSH1 0x24 DUP3 ADD MSTORE PUSH32 0x446F6D61696E20616C7265616479207265676973746572656420287472792061 PUSH1 0x44 DUP3 ADD MSTORE PUSH5 0x6761696E29 PUSH1 0xD8 SHL PUSH1 0x64 DUP3 ADD MSTORE PUSH1 0x84 ADD PUSH2 0x673 JUMP JUMPDEST CALLER PUSH1 0x0 DUP2 DUP2 MSTORE PUSH1 0x9 PUSH1 0x20 SWAP1 DUP2 MSTORE PUSH1 0x40 DUP1 DUP4 KECCAK256 SLOAD SWAP1 MLOAD SWAP3 SWAP4 PUSH2 0x12F4 SWAP4 PUSH2 0x12D4 SWAP4 SWAP2 SWAP3 TIMESTAMP SWAP3 SWAP1 SWAP2 ADD PUSH2 0x2695 JUMP JUMPDEST PUSH1 0x40 DUP1 MLOAD PUSH1 0x1F NOT DUP2 DUP5 SUB ADD DUP2 MSTORE SWAP2 SWAP1 MSTORE DUP1 MLOAD PUSH1 0x20 SWAP1 SWAP2 ADD KECCAK256 PUSH1 0x1 SLOAD PUSH2 0x1C58 JUMP JUMPDEST CALLER PUSH1 0x0 DUP2 DUP2 MSTORE PUSH1 0x9 PUSH1 0x20 SWAP1 DUP2 MSTORE PUSH1 0x40 DUP1 DUP4 KECCAK256 SLOAD SWAP1 MLOAD SWAP5 SWAP6 POP SWAP2 SWAP4 PUSH2 0x1340 SWAP4 PUSH2 0x1320 SWAP4 SWAP1 SWAP3 TIMESTAMP SWAP3 ADD PUSH2 0x26C6 JUMP JUMPDEST PUSH1 0x40 DUP1 MLOAD PUSH1 0x1F NOT DUP2 DUP5 SUB ADD DUP2 MSTORE SWAP2 SWAP1 MSTORE DUP1 MLOAD PUSH1 0x20 SWAP1 SWAP2 ADD KECCAK256 PUSH1 0x2 SLOAD PUSH2 0x1C58 JUMP JUMPDEST CALLER PUSH1 0x0 DUP2 DUP2 MSTORE PUSH1 0x9 PUSH1 0x20 SWAP1 DUP2 MSTORE PUSH1 0x40 DUP1 DUP4 KECCAK256 SLOAD SWAP1 MLOAD SWAP5 SWAP6 POP SWAP2 SWAP4 PUSH2 0x138C SWAP4 PUSH2 0x136C SWAP4 SWAP1 SWAP3 TIMESTAMP SWAP3 ADD PUSH2 0x26F8 JUMP JUMPDEST PUSH1 0x40 DUP1 MLOAD PUSH1 0x1F NOT DUP2 DUP5 SUB ADD DUP2 MSTORE SWAP2 SWAP1 MSTORE DUP1 MLOAD PUSH1 0x20 SWAP1 SWAP2 ADD KECCAK256 PUSH1 0x3 SLOAD PUSH2 0x1C58 JUMP JUMPDEST DUP5 MLOAD PUSH1 0x20 DUP1 DUP8 ADD SWAP2 SWAP1 SWAP2 KECCAK256 PUSH1 0x40 DUP1 MLOAD PUSH1 0xA0 DUP2 ADD DUP3 MSTORE PUSH1 0xFF DUP9 DUP2 AND DUP3 MSTORE DUP8 DUP2 AND DUP3 DUP7 ADD SWAP1 DUP2 MSTORE DUP7 DUP3 AND DUP4 DUP6 ADD SWAP1 DUP2 MSTORE DUP14 DUP4 AND PUSH1 0x60 DUP6 ADD SWAP1 DUP2 MSTORE PUSH1 0x1 PUSH1 0x80 DUP7 ADD SWAP1 DUP2 MSTORE PUSH1 0x0 DUP9 DUP2 MSTORE PUSH1 0x7 DUP11 MSTORE DUP8 SWAP1 KECCAK256 SWAP6 MLOAD DUP7 SLOAD SWAP5 MLOAD SWAP4 MLOAD SWAP3 MLOAD SWAP2 MLOAD SWAP1 DUP7 AND PUSH2 0xFFFF NOT SWAP1 SWAP6 AND SWAP5 SWAP1 SWAP5 OR PUSH2 0x100 SWAP4 DUP7 AND SWAP4 SWAP1 SWAP4 MUL SWAP3 SWAP1 SWAP3 OR PUSH4 0xFFFF0000 NOT AND PUSH3 0x10000 SWAP2 DUP6 AND SWAP2 SWAP1 SWAP2 MUL PUSH4 0xFF000000 NOT AND OR PUSH4 0x1000000 SWAP2 SWAP1 SWAP4 AND MUL SWAP2 SWAP1 SWAP2 OR PUSH5 0xFF00000000 NOT AND PUSH5 0x100000000 SWAP2 ISZERO ISZERO SWAP2 SWAP1 SWAP2 MUL OR SWAP1 SSTORE DUP1 MLOAD DUP1 DUP3 ADD DUP3 MSTORE CALLER DUP2 MSTORE TIMESTAMP SWAP4 DUP2 ADD SWAP4 SWAP1 SWAP4 MSTORE MLOAD SWAP3 SWAP4 POP SWAP2 PUSH1 0x5 SWAP1 PUSH2 0x1466 SWAP1 DUP9 SWAP1 PUSH2 0x2679 JUMP JUMPDEST SWAP1 DUP2 MSTORE PUSH1 0x40 MLOAD PUSH1 0x20 SWAP2 DUP2 SWAP1 SUB DUP3 ADD DUP2 KECCAK256 DUP4 MLOAD DUP2 SLOAD PUSH1 0x1 PUSH1 0x1 PUSH1 0xA0 SHL SUB NOT AND PUSH1 0x1 PUSH1 0x1 PUSH1 0xA0 SHL SUB SWAP1 SWAP2 AND OR DUP2 SSTORE SWAP3 SWAP1 SWAP2 ADD MLOAD PUSH1 0x1 SWAP3 DUP4 ADD SSTORE PUSH1 0x6 SWAP1 PUSH2 0x14AB SWAP1 DUP9 SWAP1 PUSH2 0x2679 JUMP JUMPDEST SWAP1 DUP2 MSTORE PUSH1 0x40 MLOAD PUSH1 0x20 SWAP2 DUP2 SWAP1 SUB DUP3 ADD SWAP1 KECCAK256 DUP1 SLOAD PUSH1 0xFF NOT AND SWAP3 ISZERO ISZERO SWAP3 SWAP1 SWAP3 OR SWAP1 SWAP2 SSTORE DUP7 SLOAD PUSH1 0x1 DUP2 ADD DUP9 SSTORE PUSH1 0x0 DUP9 DUP2 MSTORE SWAP2 SWAP1 SWAP2 KECCAK256 ADD PUSH2 0x14E7 DUP7 DUP3 PUSH2 0x272A JUMP JUMPDEST POP PUSH32 0x70F2FF07E8136617CDFB0433423063C9DD697C507560D7860CCE09FA86874A12 DUP6 CALLER PUSH1 0x40 MLOAD PUSH2 0x1519 SWAP3 SWAP2 SWAP1 PUSH2 0x27DE JUMP JUMPDEST PUSH1 0x40 MLOAD DUP1 SWAP2 SUB SWAP1 LOG1 POP POP POP POP POP POP POP JUMP JUMPDEST PUSH1 0x60 DUP1 PUSH1 0x60 DUP1 PUSH1 0x0 DUP7 DUP7 PUSH1 0x40 MLOAD PUSH2 0x1542 SWAP3 SWAP2 SWAP1 PUSH2 0x22C8 JUMP JUMPDEST PUSH1 0x40 DUP1 MLOAD SWAP2 DUP3 SWAP1 SUB DUP3 KECCAK256 PUSH1 0x0 DUP2 DUP2 MSTORE PUSH1 0x7 PUSH1 0x20 SWAP1 DUP2 MSTORE SWAP1 DUP4 SWAP1 KECCAK256 PUSH1 0xA0 DUP6 ADD DUP5 MSTORE SLOAD PUSH1 0xFF DUP1 DUP3 AND DUP7 MSTORE PUSH2 0x100 DUP3 DIV DUP2 AND SWAP3 DUP7 ADD SWAP3 SWAP1 SWAP3 MSTORE PUSH3 0x10000 DUP2 DIV DUP3 AND SWAP4 DUP6 ADD SWAP4 SWAP1 SWAP4 MSTORE PUSH4 0x1000000 DUP4 DIV DUP2 AND PUSH1 0x60 DUP6 ADD MSTORE PUSH5 0x100000000 SWAP1 SWAP3 DIV SWAP1 SWAP2 AND ISZERO ISZERO PUSH1 0x80 DUP4 ADD DUP2 SWAP1 MSTORE SWAP1 SWAP3 POP PUSH2 0x15F9 JUMPI PUSH1 0x40 MLOAD PUSH3 0x461BCD PUSH1 0xE5 SHL DUP2 MSTORE PUSH1 0x20 PUSH1 0x4 DUP3 ADD MSTORE PUSH1 0x1B PUSH1 0x24 DUP3 ADD MSTORE PUSH32 0x446F6D61696E20636F6D706F6E656E7473206E6F7420666F756E640000000000 PUSH1 0x44 DUP3 ADD MSTORE PUSH1 0x64 ADD PUSH2 0x673 JUMP JUMPDEST PUSH1 0x1 SLOAD DUP2 MLOAD PUSH1 0xFF AND LT PUSH2 0x164E JUMPI PUSH1 0x40 MLOAD PUSH3 0x461BCD PUSH1 0xE5 SHL DUP2 MSTORE PUSH1 0x20 PUSH1 0x4 DUP3 ADD MSTORE PUSH1 0x17 PUSH1 0x24 DUP3 ADD MSTORE PUSH32 0x496E76616C69642061646A65637469766520696E646578000000000000000000 PUSH1 0x44 DUP3 ADD MSTORE PUSH1 0x64 ADD PUSH2 0x673 JUMP JUMPDEST PUSH1 0x2 SLOAD PUSH1 0x20 DUP3 ADD MLOAD PUSH1 0xFF AND LT PUSH2 0x16A6 JUMPI PUSH1 0x40 MLOAD PUSH3 0x461BCD PUSH1 0xE5 SHL DUP2 MSTORE PUSH1 0x20 PUSH1 0x4 DUP3 ADD MSTORE PUSH1 0x18 PUSH1 0x24 DUP3 ADD MSTORE PUSH32 0x496E76616C69642064657363726970746F7220696E6465780000000000000000 PUSH1 0x44 DUP3 ADD MSTORE PUSH1 0x64 ADD PUSH2 0x673 JUMP JUMPDEST PUSH1 0x3 SLOAD PUSH1 0x40 DUP3 ADD MLOAD PUSH1 0xFF AND LT PUSH2 0x16F3 JUMPI PUSH1 0x40 MLOAD PUSH3 0x461BCD PUSH1 0xE5 SHL DUP2 MSTORE PUSH1 0x20 PUSH1 0x4 DUP3 ADD MSTORE PUSH1 0x12 PUSH1 0x24 DUP3 ADD MSTORE PUSH18 0x92DCECC2D8D2C840DCDEEADC40D2DCC8CAF PUSH1 0x73 SHL PUSH1 0x44 DUP3 ADD MSTORE PUSH1 0x64 ADD PUSH2 0x673 JUMP JUMPDEST PUSH1 0x4 SLOAD PUSH1 0x60 DUP3 ADD MLOAD PUSH1 0xFF AND LT PUSH2 0x171B JUMPI PUSH1 0x40 MLOAD PUSH3 0x461BCD PUSH1 0xE5 SHL DUP2 MSTORE PUSH1 0x4 ADD PUSH2 0x673 SWAP1 PUSH2 0x2605 JUMP JUMPDEST PUSH1 0x1 DUP2 PUSH1 0x0 ADD MLOAD PUSH1 0xFF AND DUP2 SLOAD DUP2 LT PUSH2 0x1735 JUMPI PUSH2 0x1735 PUSH2 0x22D8 JUMP JUMPDEST SWAP1 PUSH1 0x0 MSTORE PUSH1 0x20 PUSH1 0x0 KECCAK256 ADD PUSH1 0x2 DUP3 PUSH1 0x20 ADD MLOAD PUSH1 0xFF AND DUP2 SLOAD DUP2 LT PUSH2 0x1759 JUMPI PUSH2 0x1759 PUSH2 0x22D8 JUMP JUMPDEST SWAP1 PUSH1 0x0 MSTORE PUSH1 0x20 PUSH1 0x0 KECCAK256 ADD PUSH1 0x3 DUP4 PUSH1 0x40 ADD MLOAD PUSH1 0xFF AND DUP2 SLOAD DUP2 LT PUSH2 0x177D JUMPI PUSH2 0x177D PUSH2 0x22D8 JUMP JUMPDEST SWAP1 PUSH1 0x0 MSTORE PUSH1 0x20 PUSH1 0x0 KECCAK256 ADD PUSH1 0x4 DUP5 PUSH1 0x60 ADD MLOAD PUSH1 0xFF AND DUP2 SLOAD DUP2 LT PUSH2 0x17A1 JUMPI PUSH2 0x17A1 PUSH2 0x22D8 JUMP JUMPDEST SWAP1 PUSH1 0x0 MSTORE PUSH1 0x20 PUSH1 0x0 KECCAK256 ADD DUP4 DUP1 SLOAD PUSH2 0x17B7 SWAP1 PUSH2 0x228E JUMP JUMPDEST DUP1 PUSH1 0x1F ADD PUSH1 0x20 DUP1 SWAP2 DIV MUL PUSH1 0x20 ADD PUSH1 0x40 MLOAD SWAP1 DUP2 ADD PUSH1 0x40 MSTORE DUP1 SWAP3 SWAP2 SWAP1 DUP2 DUP2 MSTORE PUSH1 0x20 ADD DUP3 DUP1 SLOAD PUSH2 0x17E3 SWAP1 PUSH2 0x228E JUMP JUMPDEST DUP1 ISZERO PUSH2 0x1830 JUMPI DUP1 PUSH1 0x1F LT PUSH2 0x1805 JUMPI PUSH2 0x100 DUP1 DUP4 SLOAD DIV MUL DUP4 MSTORE SWAP2 PUSH1 0x20 ADD SWAP2 PUSH2 0x1830 JUMP JUMPDEST DUP3 ADD SWAP2 SWAP1 PUSH1 0x0 MSTORE PUSH1 0x20 PUSH1 0x0 KECCAK256 SWAP1 JUMPDEST DUP2 SLOAD DUP2 MSTORE SWAP1 PUSH1 0x1 ADD SWAP1 PUSH1 0x20 ADD DUP1 DUP4 GT PUSH2 0x1813 JUMPI DUP3 SWAP1 SUB PUSH1 0x1F AND DUP3 ADD SWAP2 JUMPDEST POP POP POP POP POP SWAP4 POP DUP3 DUP1 SLOAD PUSH2 0x1843 SWAP1 PUSH2 0x228E JUMP JUMPDEST DUP1 PUSH1 0x1F ADD PUSH1 0x20 DUP1 SWAP2 DIV MUL PUSH1 0x20 ADD PUSH1 0x40 MLOAD SWAP1 DUP2 ADD PUSH1 0x40 MSTORE DUP1 SWAP3 SWAP2 SWAP1 DUP2 DUP2 MSTORE PUSH1 0x20 ADD DUP3 DUP1 SLOAD PUSH2 0x186F SWAP1 PUSH2 0x228E JUMP JUMPDEST DUP1 ISZERO PUSH2 0x18BC JUMPI DUP1 PUSH1 0x1F LT PUSH2 0x1891 JUMPI PUSH2 0x100 DUP1 DUP4 SLOAD DIV MUL DUP4 MSTORE SWAP2 PUSH1 0x20 ADD SWAP2 PUSH2 0x18BC JUMP JUMPDEST DUP3 ADD SWAP2 SWAP1 PUSH1 0x0 MSTORE PUSH1 0x20 PUSH1 0x0 KECCAK256 SWAP1 JUMPDEST DUP2 SLOAD DUP2 MSTORE SWAP1 PUSH1 0x1 ADD SWAP1 PUSH1 0x20 ADD DUP1 DUP4 GT PUSH2 0x189F JUMPI DUP3 SWAP1 SUB PUSH1 0x1F AND DUP3 ADD SWAP2 JUMPDEST POP POP POP POP POP SWAP3 POP DUP2 DUP1 SLOAD PUSH2 0x18CF SWAP1 PUSH2 0x228E JUMP JUMPDEST DUP1 PUSH1 0x1F ADD PUSH1 0x20 DUP1 SWAP2 DIV MUL PUSH1 0x20 ADD PUSH1 0x40 MLOAD SWAP1 DUP2 ADD PUSH1 0x40 MSTORE DUP1 SWAP3 SWAP2 SWAP1 DUP2 DUP2 MSTORE PUSH1 0x20 ADD DUP3 DUP1 SLOAD PUSH2 0x18FB SWAP1 PUSH2 0x228E JUMP JUMPDEST DUP1 ISZERO PUSH2 0x1948 JUMPI DUP1 PUSH1 0x1F LT PUSH2 0x191D JUMPI PUSH2 0x100 DUP1 DUP4 SLOAD DIV MUL DUP4 MSTORE SWAP2 PUSH1 0x20 ADD SWAP2 PUSH2 0x1948 JUMP JUMPDEST DUP3 ADD SWAP2 SWAP1 PUSH1 0x0 MSTORE PUSH1 0x20 PUSH1 0x0 KECCAK256 SWAP1 JUMPDEST DUP2 SLOAD DUP2 MSTORE SWAP1 PUSH1 0x1 ADD SWAP1 PUSH1 0x20 ADD DUP1 DUP4 GT PUSH2 0x192B JUMPI DUP3 SWAP1 SUB PUSH1 0x1F AND DUP3 ADD SWAP2 JUMPDEST POP POP POP POP POP SWAP2 POP DUP1 DUP1 SLOAD PUSH2 0x195B SWAP1 PUSH2 0x228E JUMP JUMPDEST DUP1 PUSH1 0x1F ADD PUSH1 0x20 DUP1 SWAP2 DIV MUL PUSH1 0x20 ADD PUSH1 0x40 MLOAD SWAP1 DUP2 ADD PUSH1 0x40 MSTORE DUP1 SWAP3 SWAP2 SWAP1 DUP2 DUP2 MSTORE PUSH1 0x20 ADD DUP3 DUP1 SLOAD PUSH2 0x1987 SWAP1 PUSH2 0x228E JUMP JUMPDEST DUP1 ISZERO PUSH2 0x19D4 JUMPI DUP1 PUSH1 0x1F LT PUSH2 0x19A9 JUMPI PUSH2 0x100 DUP1 DUP4 SLOAD DIV MUL DUP4 MSTORE SWAP2 PUSH1 0x20 ADD SWAP2 PUSH2 0x19D4 JUMP JUMPDEST DUP3 ADD SWAP2 SWAP1 PUSH1 0x0 MSTORE PUSH1 0x20 PUSH1 0x0 KECCAK256 SWAP1 JUMPDEST DUP2 SLOAD DUP2 MSTORE SWAP1 PUSH1 0x1 ADD SWAP1 PUSH1 0x20 ADD DUP1 DUP4 GT PUSH2 0x19B7 JUMPI DUP3 SWAP1 SUB PUSH1 0x1F AND DUP3 ADD SWAP2 JUMPDEST POP POP POP POP POP SWAP1 POP SWAP6 POP SWAP6 POP SWAP6 POP SWAP6 POP POP POP SWAP3 SWAP6 SWAP2 SWAP5 POP SWAP3 POP JUMP JUMPDEST PUSH2 0x19F6 PUSH2 0x1A64 JUMP JUMPDEST PUSH1 0x1 PUSH1 0x1 PUSH1 0xA0 SHL SUB DUP2 AND PUSH2 0x1A5B JUMPI PUSH1 0x40 MLOAD PUSH3 0x461BCD PUSH1 0xE5 SHL DUP2 MSTORE PUSH1 0x20 PUSH1 0x4 DUP3 ADD MSTORE PUSH1 0x26 PUSH1 0x24 DUP3 ADD MSTORE PUSH32 0x4F776E61626C653A206E6577206F776E657220697320746865207A65726F2061 PUSH1 0x44 DUP3 ADD MSTORE PUSH6 0x646472657373 PUSH1 0xD0 SHL PUSH1 0x64 DUP3 ADD MSTORE PUSH1 0x84 ADD PUSH2 0x673 JUMP JUMPDEST PUSH2 0x9FE DUP2 PUSH2 0x1ABE JUMP JUMPDEST PUSH1 0x0 SLOAD PUSH1 0x1 PUSH1 0x1 PUSH1 0xA0 SHL SUB AND CALLER EQ PUSH2 0xE1D JUMPI PUSH1 0x40 MLOAD PUSH3 0x461BCD PUSH1 0xE5 SHL DUP2 MSTORE PUSH1 0x20 PUSH1 0x4 DUP3 ADD DUP2 SWAP1 MSTORE PUSH1 0x24 DUP3 ADD MSTORE PUSH32 0x4F776E61626C653A2063616C6C6572206973206E6F7420746865206F776E6572 PUSH1 0x44 DUP3 ADD MSTORE PUSH1 0x64 ADD PUSH2 0x673 JUMP JUMPDEST PUSH1 0x0 DUP1 SLOAD PUSH1 0x1 PUSH1 0x1 PUSH1 0xA0 SHL SUB DUP4 DUP2 AND PUSH1 0x1 PUSH1 0x1 PUSH1 0xA0 SHL SUB NOT DUP4 AND DUP2 OR DUP5 SSTORE PUSH1 0x40 MLOAD SWAP2 SWAP1 SWAP3 AND SWAP3 DUP4 SWAP2 PUSH32 0x8BE0079C531659141344CD1FD0A4F28419497F9722A3DAAFE3B4186F6B6457E0 SWAP2 SWAP1 LOG3 POP POP JUMP JUMPDEST PUSH1 0x4 SLOAD PUSH1 0x60 SWAP1 PUSH1 0xFF DUP4 AND LT PUSH2 0x1B35 JUMPI PUSH1 0x40 MLOAD PUSH3 0x461BCD PUSH1 0xE5 SHL DUP2 MSTORE PUSH1 0x4 ADD PUSH2 0x673 SWAP1 PUSH2 0x2605 JUMP JUMPDEST PUSH1 0x0 PUSH2 0x1B4F DUP6 TIMESTAMP DUP7 PUSH1 0x40 MLOAD PUSH1 0x20 ADD PUSH2 0x12D4 SWAP4 SWAP3 SWAP2 SWAP1 PUSH2 0x2695 JUMP JUMPDEST SWAP1 POP PUSH1 0x0 PUSH2 0x1B6B DUP7 TIMESTAMP DUP8 PUSH1 0x40 MLOAD PUSH1 0x20 ADD PUSH2 0x1320 SWAP4 SWAP3 SWAP2 SWAP1 PUSH2 0x26C6 JUMP JUMPDEST SWAP1 POP PUSH1 0x0 PUSH2 0x1B87 DUP8 TIMESTAMP DUP9 PUSH1 0x40 MLOAD PUSH1 0x20 ADD PUSH2 0x136C SWAP4 SWAP3 SWAP2 SWAP1 PUSH2 0x26F8 JUMP JUMPDEST SWAP1 POP PUSH1 0x1 DUP4 PUSH1 0xFF AND DUP2 SLOAD DUP2 LT PUSH2 0x1B9F JUMPI PUSH2 0x1B9F PUSH2 0x22D8 JUMP JUMPDEST SWAP1 PUSH1 0x0 MSTORE PUSH1 0x20 PUSH1 0x0 KECCAK256 ADD PUSH1 0x2 DUP4 PUSH1 0xFF AND DUP2 SLOAD DUP2 LT PUSH2 0x1BBF JUMPI PUSH2 0x1BBF PUSH2 0x22D8 JUMP JUMPDEST SWAP1 PUSH1 0x0 MSTORE PUSH1 0x20 PUSH1 0x0 KECCAK256 ADD PUSH1 0x3 DUP4 PUSH1 0xFF AND DUP2 SLOAD DUP2 LT PUSH2 0x1BDF JUMPI PUSH2 0x1BDF PUSH2 0x22D8 JUMP JUMPDEST SWAP1 PUSH1 0x0 MSTORE PUSH1 0x20 PUSH1 0x0 KECCAK256 ADD PUSH1 0x4 DUP9 PUSH1 0xFF AND DUP2 SLOAD DUP2 LT PUSH2 0x1BFF JUMPI PUSH2 0x1BFF PUSH2 0x22D8 JUMP JUMPDEST SWAP1 PUSH1 0x0 MSTORE PUSH1 0x20 PUSH1 0x0 KECCAK256 ADD PUSH1 0x40 MLOAD DUP1 PUSH1 0x40 ADD PUSH1 0x40 MSTORE DUP1 PUSH1 0x7 DUP2 MSTORE PUSH1 0x20 ADD PUSH7 0xB9BDC1D0B9A59 PUSH1 0xCA SHL DUP2 MSTORE POP PUSH1 0x40 MLOAD PUSH1 0x20 ADD PUSH2 0x1C3D SWAP6 SWAP5 SWAP4 SWAP3 SWAP2 SWAP1 PUSH2 0x2808 JUMP JUMPDEST PUSH1 0x40 MLOAD PUSH1 0x20 DUP2 DUP4 SUB SUB DUP2 MSTORE SWAP1 PUSH1 0x40 MSTORE SWAP4 POP POP POP POP SWAP4 SWAP3 POP POP POP JUMP JUMPDEST PUSH1 0x0 PUSH1 0xFF DUP3 GT ISZERO PUSH2 0x1CAB JUMPI PUSH1 0x40 MLOAD PUSH3 0x461BCD PUSH1 0xE5 SHL DUP2 MSTORE PUSH1 0x20 PUSH1 0x4 DUP3 ADD MSTORE PUSH1 0x17 PUSH1 0x24 DUP3 ADD MSTORE PUSH32 0x4D617820746F6F206C6172676520666F722075696E7438000000000000000000 PUSH1 0x44 DUP3 ADD MSTORE PUSH1 0x64 ADD PUSH2 0x673 JUMP JUMPDEST PUSH1 0x0 DUP3 GT PUSH2 0x1CF2 JUMPI PUSH1 0x40 MLOAD PUSH3 0x461BCD PUSH1 0xE5 SHL DUP2 MSTORE PUSH1 0x20 PUSH1 0x4 DUP3 ADD MSTORE PUSH1 0x14 PUSH1 0x24 DUP3 ADD MSTORE PUSH20 0x4D6178206D75737420626520706F736974697665 PUSH1 0x60 SHL PUSH1 0x44 DUP3 ADD MSTORE PUSH1 0x64 ADD PUSH2 0x673 JUMP JUMPDEST PUSH2 0x1CFC DUP3 DUP5 PUSH2 0x286B JUMP JUMPDEST SWAP1 POP JUMPDEST SWAP3 SWAP2 POP POP JUMP JUMPDEST POP DUP1 SLOAD PUSH2 0x1D11 SWAP1 PUSH2 0x228E JUMP JUMPDEST PUSH1 0x0 DUP3 SSTORE DUP1 PUSH1 0x1F LT PUSH2 0x1D21 JUMPI POP POP JUMP JUMPDEST PUSH1 0x1F ADD PUSH1 0x20 SWAP1 DIV SWAP1 PUSH1 0x0 MSTORE PUSH1 0x20 PUSH1 0x0 KECCAK256 SWAP1 DUP2 ADD SWAP1 PUSH2 0x9FE SWAP2 SWAP1 PUSH2 0x1D5D JUMP JUMPDEST POP DUP1 SLOAD PUSH1 0x0 DUP3 SSTORE SWAP1 PUSH1 0x0 MSTORE PUSH1 0x20 PUSH1 0x0 KECCAK256 SWAP1 DUP2 ADD SWAP1 PUSH2 0x9FE SWAP2 SWAP1 PUSH2 0x1D76 JUMP JUMPDEST JUMPDEST DUP1 DUP3 GT ISZERO PUSH2 0x1D72 JUMPI PUSH1 0x0 DUP2 SSTORE PUSH1 0x1 ADD PUSH2 0x1D5E JUMP JUMPDEST POP SWAP1 JUMP JUMPDEST DUP1 DUP3 GT ISZERO PUSH2 0x1D72 JUMPI PUSH1 0x0 PUSH2 0x1D8A DUP3 DUP3 PUSH2 0x1D05 JUMP JUMPDEST POP PUSH1 0x1 ADD PUSH2 0x1D76 JUMP JUMPDEST DUP1 CALLDATALOAD PUSH1 0x1 PUSH1 0x1 PUSH1 0xA0 SHL SUB DUP2 AND DUP2 EQ PUSH2 0x1DAA JUMPI PUSH1 0x0 DUP1 REVERT JUMPDEST SWAP2 SWAP1 POP JUMP JUMPDEST PUSH1 0x0 PUSH1 0x20 DUP3 DUP5 SUB SLT ISZERO PUSH2 0x1DC1 JUMPI PUSH1 0x0 DUP1 REVERT JUMPDEST PUSH2 0x1CFC DUP3 PUSH2 0x1D93 JUMP JUMPDEST PUSH1 0x0 JUMPDEST DUP4 DUP2 LT ISZERO PUSH2 0x1DE5 JUMPI DUP2 DUP2 ADD MLOAD DUP4 DUP3 ADD MSTORE PUSH1 0x20 ADD PUSH2 0x1DCD JUMP JUMPDEST POP POP PUSH1 0x0 SWAP2 ADD MSTORE JUMP JUMPDEST PUSH1 0x0 DUP2 MLOAD DUP1 DUP5 MSTORE PUSH2 0x1E06 DUP2 PUSH1 0x20 DUP7 ADD PUSH1 0x20 DUP7 ADD PUSH2 0x1DCA JUMP JUMPDEST PUSH1 0x1F ADD PUSH1 0x1F NOT AND SWAP3 SWAP1 SWAP3 ADD PUSH1 0x20 ADD SWAP3 SWAP2 POP POP JUMP JUMPDEST PUSH1 0x0 DUP3 DUP3 MLOAD DUP1 DUP6 MSTORE PUSH1 0x20 DUP1 DUP7 ADD SWAP6 POP DUP1 DUP3 PUSH1 0x5 SHL DUP5 ADD ADD DUP2 DUP7 ADD PUSH1 0x0 JUMPDEST DUP5 DUP2 LT ISZERO PUSH2 0x1E65 JUMPI PUSH1 0x1F NOT DUP7 DUP5 SUB ADD DUP10 MSTORE PUSH2 0x1E53 DUP4 DUP4 MLOAD PUSH2 0x1DEE JUMP JUMPDEST SWAP9 DUP5 ADD SWAP9 SWAP3 POP SWAP1 DUP4 ADD SWAP1 PUSH1 0x1 ADD PUSH2 0x1E37 JUMP JUMPDEST POP SWAP1 SWAP8 SWAP7 POP POP POP POP POP POP POP JUMP JUMPDEST PUSH1 0x20 DUP2 MSTORE PUSH1 0x0 PUSH2 0x1CFC PUSH1 0x20 DUP4 ADD DUP5 PUSH2 0x1E1A JUMP JUMPDEST PUSH1 0x0 DUP1 DUP4 PUSH1 0x1F DUP5 ADD SLT PUSH2 0x1E97 JUMPI PUSH1 0x0 DUP1 REVERT JUMPDEST POP DUP2 CALLDATALOAD PUSH8 0xFFFFFFFFFFFFFFFF DUP2 GT ISZERO PUSH2 0x1EAF JUMPI PUSH1 0x0 DUP1 REVERT JUMPDEST PUSH1 0x20 DUP4 ADD SWAP2 POP DUP4 PUSH1 0x20 DUP3 DUP6 ADD ADD GT ISZERO PUSH2 0x1EC7 JUMPI PUSH1 0x0 DUP1 REVERT JUMPDEST SWAP3 POP SWAP3 SWAP1 POP JUMP JUMPDEST PUSH1 0x0 DUP1 PUSH1 0x0 PUSH1 0x40 DUP5 DUP7 SUB SLT ISZERO PUSH2 0x1EE3 JUMPI PUSH1 0x0 DUP1 REVERT JUMPDEST DUP4 CALLDATALOAD PUSH8 0xFFFFFFFFFFFFFFFF DUP2 GT ISZERO PUSH2 0x1EFA JUMPI PUSH1 0x0 DUP1 REVERT JUMPDEST PUSH2 0x1F06 DUP7 DUP3 DUP8 ADD PUSH2 0x1E85 JUMP JUMPDEST SWAP1 SWAP5 POP SWAP3 POP PUSH2 0x1F19 SWAP1 POP PUSH1 0x20 DUP6 ADD PUSH2 0x1D93 JUMP JUMPDEST SWAP1 POP SWAP3 POP SWAP3 POP SWAP3 JUMP JUMPDEST PUSH1 0x0 PUSH1 0x20 DUP3 DUP5 SUB SLT ISZERO PUSH2 0x1F34 JUMPI PUSH1 0x0 DUP1 REVERT JUMPDEST POP CALLDATALOAD SWAP2 SWAP1 POP JUMP JUMPDEST PUSH1 0x20 DUP2 MSTORE PUSH1 0x0 PUSH2 0x1CFC PUSH1 0x20 DUP4 ADD DUP5 PUSH2 0x1DEE JUMP JUMPDEST PUSH1 0x0 DUP1 PUSH1 0x20 DUP4 DUP6 SUB SLT ISZERO PUSH2 0x1F61 JUMPI PUSH1 0x0 DUP1 REVERT JUMPDEST DUP3 CALLDATALOAD PUSH8 0xFFFFFFFFFFFFFFFF DUP2 GT ISZERO PUSH2 0x1F78 JUMPI PUSH1 0x0 DUP1 REVERT JUMPDEST PUSH2 0x1F84 DUP6 DUP3 DUP7 ADD PUSH2 0x1E85 JUMP JUMPDEST SWAP1 SWAP7 SWAP1 SWAP6 POP SWAP4 POP POP POP POP JUMP JUMPDEST PUSH1 0x80 DUP2 MSTORE PUSH1 0x0 PUSH2 0x1FA3 PUSH1 0x80 DUP4 ADD DUP8 PUSH2 0x1E1A JUMP JUMPDEST DUP3 DUP2 SUB PUSH1 0x20 DUP5 ADD MSTORE PUSH2 0x1FB5 DUP2 DUP8 PUSH2 0x1E1A JUMP JUMPDEST SWAP1 POP DUP3 DUP2 SUB PUSH1 0x40 DUP5 ADD MSTORE PUSH2 0x1FC9 DUP2 DUP7 PUSH2 0x1E1A JUMP JUMPDEST SWAP1 POP DUP3 DUP2 SUB PUSH1 0x60 DUP5 ADD MSTORE PUSH2 0x1FDD DUP2 DUP6 PUSH2 0x1E1A JUMP JUMPDEST SWAP8 SWAP7 POP POP POP POP POP POP POP JUMP JUMPDEST DUP1 CALLDATALOAD PUSH1 0xFF DUP2 AND DUP2 EQ PUSH2 0x1DAA JUMPI PUSH1 0x0 DUP1 REVERT JUMPDEST PUSH1 0x0 DUP1 PUSH1 0x0 PUSH1 0x60 DUP5 DUP7 SUB SLT ISZERO PUSH2 0x200E JUMPI PUSH1 0x0 DUP1 REVERT JUMPDEST PUSH2 0x2017 DUP5 PUSH2 0x1D93 JUMP JUMPDEST SWAP3 POP PUSH1 0x20 DUP5 ADD CALLDATALOAD SWAP2 POP PUSH2 0x1F19 PUSH1 0x40 DUP6 ADD PUSH2 0x1FE8 JUMP JUMPDEST PUSH1 0x0 DUP1 DUP4 PUSH1 0x1F DUP5 ADD SLT PUSH2 0x203E JUMPI PUSH1 0x0 DUP1 REVERT JUMPDEST POP DUP2 CALLDATALOAD PUSH8 0xFFFFFFFFFFFFFFFF DUP2 GT ISZERO PUSH2 0x2056 JUMPI PUSH1 0x0 DUP1 REVERT JUMPDEST PUSH1 0x20 DUP4 ADD SWAP2 POP DUP4 PUSH1 0x20 DUP3 PUSH1 0x5 SHL DUP6 ADD ADD GT ISZERO PUSH2 0x1EC7 JUMPI PUSH1 0x0 DUP1 REVERT JUMPDEST PUSH1 0x0 DUP1 PUSH1 0x0 DUP1 PUSH1 0x0 DUP1 PUSH1 0x0 DUP1 PUSH1 0x80 DUP10 DUP12 SUB SLT ISZERO PUSH2 0x208D JUMPI PUSH1 0x0 DUP1 REVERT JUMPDEST DUP9 CALLDATALOAD PUSH8 0xFFFFFFFFFFFFFFFF DUP1 DUP3 GT ISZERO PUSH2 0x20A5 JUMPI PUSH1 0x0 DUP1 REVERT JUMPDEST PUSH2 0x20B1 DUP13 DUP4 DUP14 ADD PUSH2 0x202C JUMP JUMPDEST SWAP1 SWAP11 POP SWAP9 POP PUSH1 0x20 DUP12 ADD CALLDATALOAD SWAP2 POP DUP1 DUP3 GT ISZERO PUSH2 0x20CA JUMPI PUSH1 0x0 DUP1 REVERT JUMPDEST PUSH2 0x20D6 DUP13 DUP4 DUP14 ADD PUSH2 0x202C JUMP JUMPDEST SWAP1 SWAP9 POP SWAP7 POP PUSH1 0x40 DUP12 ADD CALLDATALOAD SWAP2 POP DUP1 DUP3 GT ISZERO PUSH2 0x20EF JUMPI PUSH1 0x0 DUP1 REVERT JUMPDEST PUSH2 0x20FB DUP13 DUP4 DUP14 ADD PUSH2 0x202C JUMP JUMPDEST SWAP1 SWAP7 POP SWAP5 POP PUSH1 0x60 DUP12 ADD CALLDATALOAD SWAP2 POP DUP1 DUP3 GT ISZERO PUSH2 0x2114 JUMPI PUSH1 0x0 DUP1 REVERT JUMPDEST POP PUSH2 0x2121 DUP12 DUP3 DUP13 ADD PUSH2 0x202C JUMP JUMPDEST SWAP10 SWAP13 SWAP9 SWAP12 POP SWAP7 SWAP10 POP SWAP5 SWAP8 SWAP4 SWAP7 SWAP3 SWAP6 SWAP5 POP POP POP JUMP JUMPDEST PUSH1 0x0 DUP1 PUSH1 0x40 DUP4 DUP6 SUB SLT ISZERO PUSH2 0x2148 JUMPI PUSH1 0x0 DUP1 REVERT JUMPDEST PUSH2 0x2151 DUP4 PUSH2 0x1D93 JUMP JUMPDEST SWAP5 PUSH1 0x20 SWAP4 SWAP1 SWAP4 ADD CALLDATALOAD SWAP4 POP POP POP JUMP JUMPDEST PUSH1 0x0 PUSH1 0x20 DUP3 DUP5 SUB SLT ISZERO PUSH2 0x2171 JUMPI PUSH1 0x0 DUP1 REVERT JUMPDEST PUSH2 0x1CFC DUP3 PUSH2 0x1FE8 JUMP JUMPDEST PUSH1 0x80 DUP2 MSTORE PUSH1 0x0 PUSH2 0x218D PUSH1 0x80 DUP4 ADD DUP8 PUSH2 0x1DEE JUMP JUMPDEST DUP3 DUP2 SUB PUSH1 0x20 DUP5 ADD MSTORE PUSH2 0x219F DUP2 DUP8 PUSH2 0x1DEE JUMP JUMPDEST SWAP1 POP DUP3 DUP2 SUB PUSH1 0x40 DUP5 ADD MSTORE PUSH2 0x21B3 DUP2 DUP7 PUSH2 0x1DEE JUMP JUMPDEST SWAP1 POP DUP3 DUP2 SUB PUSH1 0x60 DUP5 ADD MSTORE PUSH2 0x1FDD DUP2 DUP6 PUSH2 0x1DEE JUMP JUMPDEST PUSH4 0x4E487B71 PUSH1 0xE0 SHL PUSH1 0x0 MSTORE PUSH1 0x41 PUSH1 0x4 MSTORE PUSH1 0x24 PUSH1 0x0 REVERT JUMPDEST PUSH1 0x0 PUSH1 0x20 DUP3 DUP5 SUB SLT ISZERO PUSH2 0x21EF JUMPI PUSH1 0x0 DUP1 REVERT JUMPDEST DUP2 CALLDATALOAD PUSH8 0xFFFFFFFFFFFFFFFF DUP1 DUP3 GT ISZERO PUSH2 0x2207 JUMPI PUSH1 0x0 DUP1 REVERT JUMPDEST DUP2 DUP5 ADD SWAP2 POP DUP5 PUSH1 0x1F DUP4 ADD SLT PUSH2 0x221B JUMPI PUSH1 0x0 DUP1 REVERT JUMPDEST DUP2 CALLDATALOAD DUP2 DUP2 GT ISZERO PUSH2 0x222D JUMPI PUSH2 0x222D PUSH2 0x21C7 JUMP JUMPDEST PUSH1 0x40 MLOAD PUSH1 0x1F DUP3 ADD PUSH1 0x1F NOT SWAP1 DUP2 AND PUSH1 0x3F ADD AND DUP2 ADD SWAP1 DUP4 DUP3 GT DUP2 DUP4 LT OR ISZERO PUSH2 0x2255 JUMPI PUSH2 0x2255 PUSH2 0x21C7 JUMP JUMPDEST DUP2 PUSH1 0x40 MSTORE DUP3 DUP2 MSTORE DUP8 PUSH1 0x20 DUP5 DUP8 ADD ADD GT ISZERO PUSH2 0x226E JUMPI PUSH1 0x0 DUP1 REVERT JUMPDEST DUP3 PUSH1 0x20 DUP7 ADD PUSH1 0x20 DUP4 ADD CALLDATACOPY PUSH1 0x0 SWAP3 DUP2 ADD PUSH1 0x20 ADD SWAP3 SWAP1 SWAP3 MSTORE POP SWAP6 SWAP5 POP POP POP POP POP JUMP JUMPDEST PUSH1 0x1 DUP2 DUP2 SHR SWAP1 DUP3 AND DUP1 PUSH2 0x22A2 JUMPI PUSH1 0x7F DUP3 AND SWAP2 POP JUMPDEST PUSH1 0x20 DUP3 LT DUP2 SUB PUSH2 0x22C2 JUMPI PUSH4 0x4E487B71 PUSH1 0xE0 SHL PUSH1 0x0 MSTORE PUSH1 0x22 PUSH1 0x4 MSTORE PUSH1 0x24 PUSH1 0x0 REVERT JUMPDEST POP SWAP2 SWAP1 POP JUMP JUMPDEST DUP2 DUP4 DUP3 CALLDATACOPY PUSH1 0x0 SWAP2 ADD SWAP1 DUP2 MSTORE SWAP2 SWAP1 POP JUMP JUMPDEST PUSH4 0x4E487B71 PUSH1 0xE0 SHL PUSH1 0x0 MSTORE PUSH1 0x32 PUSH1 0x4 MSTORE PUSH1 0x24 PUSH1 0x0 REVERT JUMPDEST PUSH1 0x0 DUP2 SLOAD PUSH2 0x22FB DUP2 PUSH2 0x228E JUMP JUMPDEST PUSH1 0x1 DUP3 DUP2 AND DUP1 ISZERO PUSH2 0x2313 JUMPI PUSH1 0x1 DUP2 EQ PUSH2 0x2328 JUMPI PUSH2 0x2357 JUMP JUMPDEST PUSH1 0xFF NOT DUP5 AND DUP8 MSTORE DUP3 ISZERO ISZERO DUP4 MUL DUP8 ADD SWAP5 POP PUSH2 0x2357 JUMP JUMPDEST DUP6 PUSH1 0x0 MSTORE PUSH1 0x20 DUP1 PUSH1 0x0 KECCAK256 PUSH1 0x0 JUMPDEST DUP6 DUP2 LT ISZERO PUSH2 0x234E JUMPI DUP2 SLOAD DUP11 DUP3 ADD MSTORE SWAP1 DUP5 ADD SWAP1 DUP3 ADD PUSH2 0x2335 JUMP JUMPDEST POP POP POP DUP3 DUP8 ADD SWAP5 POP JUMPDEST POP POP POP POP SWAP3 SWAP2 POP POP JUMP JUMPDEST PUSH1 0x0 PUSH2 0x1CFC DUP3 DUP5 PUSH2 0x22EE JUMP JUMPDEST PUSH4 0x4E487B71 PUSH1 0xE0 SHL PUSH1 0x0 MSTORE PUSH1 0x11 PUSH1 0x4 MSTORE PUSH1 0x24 PUSH1 0x0 REVERT JUMPDEST DUP2 DUP2 SUB DUP2 DUP2 GT ISZERO PUSH2 0x1CFF JUMPI PUSH2 0x1CFF PUSH2 0x236D JUMP JUMPDEST PUSH1 0x1F DUP3 GT ISZERO PUSH2 0x23E0 JUMPI PUSH1 0x0 DUP2 DUP2 MSTORE PUSH1 0x20 DUP2 KECCAK256 PUSH1 0x1F DUP6 ADD PUSH1 0x5 SHR DUP2 ADD PUSH1 0x20 DUP7 LT ISZERO PUSH2 0x23BD JUMPI POP DUP1 JUMPDEST PUSH1 0x1F DUP6 ADD PUSH1 0x5 SHR DUP3 ADD SWAP2 POP JUMPDEST DUP2 DUP2 LT ISZERO PUSH2 0x23DC JUMPI DUP3 DUP2 SSTORE PUSH1 0x1 ADD PUSH2 0x23C9 JUMP JUMPDEST POP POP POP JUMPDEST POP POP POP JUMP JUMPDEST PUSH1 0x0 NOT PUSH1 0x3 DUP4 SWAP1 SHL SHR NOT AND PUSH1 0x1 SWAP2 SWAP1 SWAP2 SHL OR SWAP1 JUMP JUMPDEST DUP2 DUP2 SUB PUSH2 0x2405 JUMPI POP POP JUMP JUMPDEST PUSH2 0x240F DUP3 SLOAD PUSH2 0x228E JUMP JUMPDEST PUSH8 0xFFFFFFFFFFFFFFFF DUP2 GT ISZERO PUSH2 0x2427 JUMPI PUSH2 0x2427 PUSH2 0x21C7 JUMP JUMPDEST PUSH2 0x243B DUP2 PUSH2 0x2435 DUP5 SLOAD PUSH2 0x228E JUMP JUMPDEST DUP5 PUSH2 0x2396 JUMP JUMPDEST PUSH1 0x0 PUSH1 0x1F DUP3 GT PUSH1 0x1 DUP2 EQ PUSH2 0x2469 JUMPI PUSH1 0x0 DUP4 ISZERO PUSH2 0x2457 JUMPI POP DUP5 DUP3 ADD SLOAD JUMPDEST PUSH2 0x2461 DUP5 DUP3 PUSH2 0x23E5 JUMP JUMPDEST DUP6 SSTORE POP PUSH2 0x24CE JUMP JUMPDEST PUSH1 0x0 DUP6 DUP2 MSTORE PUSH1 0x20 SWAP1 KECCAK256 PUSH1 0x1F NOT DUP5 AND SWAP1 PUSH1 0x0 DUP7 DUP2 MSTORE PUSH1 0x20 SWAP1 KECCAK256 DUP5 JUMPDEST DUP4 DUP2 LT ISZERO PUSH2 0x24A3 JUMPI DUP3 DUP7 ADD SLOAD DUP3 SSTORE PUSH1 0x1 SWAP6 DUP7 ADD SWAP6 SWAP1 SWAP2 ADD SWAP1 PUSH1 0x20 ADD PUSH2 0x2483 JUMP JUMPDEST POP DUP6 DUP4 LT ISZERO PUSH2 0x24C1 JUMPI DUP2 DUP6 ADD SLOAD PUSH1 0x0 NOT PUSH1 0x3 DUP9 SWAP1 SHL PUSH1 0xF8 AND SHR NOT AND DUP2 SSTORE JUMPDEST POP POP POP PUSH1 0x1 DUP4 PUSH1 0x1 SHL ADD DUP5 SSTORE JUMPDEST POP POP POP POP POP JUMP JUMPDEST PUSH4 0x4E487B71 PUSH1 0xE0 SHL PUSH1 0x0 MSTORE PUSH1 0x31 PUSH1 0x4 MSTORE PUSH1 0x24 PUSH1 0x0 REVERT JUMPDEST PUSH1 0x0 PUSH1 0x1 DUP3 ADD PUSH2 0x24FD JUMPI PUSH2 0x24FD PUSH2 0x236D JUMP JUMPDEST POP PUSH1 0x1 ADD SWAP1 JUMP JUMPDEST PUSH8 0xFFFFFFFFFFFFFFFF DUP4 GT ISZERO PUSH2 0x251C JUMPI PUSH2 0x251C PUSH2 0x21C7 JUMP JUMPDEST PUSH2 0x2530 DUP4 PUSH2 0x252A DUP4 SLOAD PUSH2 0x228E JUMP JUMPDEST DUP4 PUSH2 0x2396 JUMP JUMPDEST PUSH1 0x0 PUSH1 0x1F DUP5 GT PUSH1 0x1 DUP2 EQ PUSH2 0x255E JUMPI PUSH1 0x0 DUP6 ISZERO PUSH2 0x254C JUMPI POP DUP4 DUP3 ADD CALLDATALOAD JUMPDEST PUSH2 0x2556 DUP7 DUP3 PUSH2 0x23E5 JUMP JUMPDEST DUP5 SSTORE POP PUSH2 0x24CE JUMP JUMPDEST PUSH1 0x0 DUP4 DUP2 MSTORE PUSH1 0x20 SWAP1 KECCAK256 PUSH1 0x1F NOT DUP7 AND SWAP1 DUP4 JUMPDEST DUP3 DUP2 LT ISZERO PUSH2 0x258F JUMPI DUP7 DUP6 ADD CALLDATALOAD DUP3 SSTORE PUSH1 0x20 SWAP5 DUP6 ADD SWAP5 PUSH1 0x1 SWAP1 SWAP3 ADD SWAP2 ADD PUSH2 0x256F JUMP JUMPDEST POP DUP7 DUP3 LT ISZERO PUSH2 0x25AC JUMPI PUSH1 0x0 NOT PUSH1 0xF8 DUP9 PUSH1 0x3 SHL AND SHR NOT DUP5 DUP8 ADD CALLDATALOAD AND DUP2 SSTORE JUMPDEST POP POP PUSH1 0x1 DUP6 PUSH1 0x1 SHL ADD DUP4 SSTORE POP POP POP POP POP JUMP JUMPDEST PUSH1 0x60 DUP2 MSTORE DUP4 PUSH1 0x60 DUP3 ADD MSTORE DUP4 DUP6 PUSH1 0x80 DUP4 ADD CALLDATACOPY PUSH1 0x0 PUSH1 0x80 DUP6 DUP4 ADD DUP2 ADD SWAP2 SWAP1 SWAP2 MSTORE PUSH1 0x1 PUSH1 0x1 PUSH1 0xA0 SHL SUB SWAP4 DUP5 AND PUSH1 0x20 DUP4 ADD MSTORE SWAP2 SWAP1 SWAP3 AND PUSH1 0x40 DUP4 ADD MSTORE PUSH1 0x1F SWAP1 SWAP3 ADD PUSH1 0x1F NOT AND ADD ADD SWAP2 SWAP1 POP JUMP JUMPDEST PUSH1 0x20 DUP1 DUP3 MSTORE PUSH1 0x13 SWAP1 DUP3 ADD MSTORE PUSH19 0x92DCECC2D8D2C840C6D0C2D2DC40D2DCC8CAF PUSH1 0x6B SHL PUSH1 0x40 DUP3 ADD MSTORE PUSH1 0x60 ADD SWAP1 JUMP JUMPDEST PUSH1 0x0 DUP1 DUP4 CALLDATALOAD PUSH1 0x1E NOT DUP5 CALLDATASIZE SUB ADD DUP2 SLT PUSH2 0x2649 JUMPI PUSH1 0x0 DUP1 REVERT JUMPDEST DUP4 ADD DUP1 CALLDATALOAD SWAP2 POP PUSH8 0xFFFFFFFFFFFFFFFF DUP3 GT ISZERO PUSH2 0x2664 JUMPI PUSH1 0x0 DUP1 REVERT JUMPDEST PUSH1 0x20 ADD SWAP2 POP CALLDATASIZE DUP2 SWAP1 SUB DUP3 SGT ISZERO PUSH2 0x1EC7 JUMPI PUSH1 0x0 DUP1 REVERT JUMPDEST PUSH1 0x0 DUP3 MLOAD PUSH2 0x268B DUP2 DUP5 PUSH1 0x20 DUP8 ADD PUSH2 0x1DCA JUMP JUMPDEST SWAP2 SWAP1 SWAP2 ADD SWAP3 SWAP2 POP POP JUMP JUMPDEST PUSH1 0x60 SWAP4 SWAP1 SWAP4 SHL PUSH1 0x1 PUSH1 0x1 PUSH1 0x60 SHL SUB NOT AND DUP4 MSTORE PUSH1 0x14 DUP4 ADD SWAP2 SWAP1 SWAP2 MSTORE PUSH1 0x34 DUP3 ADD MSTORE PUSH3 0x30B235 PUSH1 0xE9 SHL PUSH1 0x54 DUP3 ADD MSTORE PUSH1 0x57 ADD SWAP1 JUMP JUMPDEST PUSH1 0x60 SWAP4 SWAP1 SWAP4 SHL PUSH1 0x1 PUSH1 0x1 PUSH1 0x60 SHL SUB NOT AND DUP4 MSTORE PUSH1 0x14 DUP4 ADD SWAP2 SWAP1 SWAP2 MSTORE PUSH1 0x34 DUP3 ADD MSTORE PUSH4 0x64657363 PUSH1 0xE0 SHL PUSH1 0x54 DUP3 ADD MSTORE PUSH1 0x58 ADD SWAP1 JUMP JUMPDEST PUSH1 0x60 SWAP4 SWAP1 SWAP4 SHL PUSH1 0x1 PUSH1 0x1 PUSH1 0x60 SHL SUB NOT AND DUP4 MSTORE PUSH1 0x14 DUP4 ADD SWAP2 SWAP1 SWAP2 MSTORE PUSH1 0x34 DUP3 ADD MSTORE PUSH4 0x3737BAB7 PUSH1 0xE1 SHL PUSH1 0x54 DUP3 ADD MSTORE PUSH1 0x58 ADD SWAP1 JUMP JUMPDEST DUP2 MLOAD PUSH8 0xFFFFFFFFFFFFFFFF DUP2 GT ISZERO PUSH2 0x2744 JUMPI PUSH2 0x2744 PUSH2 0x21C7 JUMP JUMPDEST PUSH2 0x2752 DUP2 PUSH2 0x2435 DUP5 SLOAD PUSH2 0x228E JUMP JUMPDEST PUSH1 0x20 DUP1 PUSH1 0x1F DUP4 GT PUSH1 0x1 DUP2 EQ PUSH2 0x2781 JUMPI PUSH1 0x0 DUP5 ISZERO PUSH2 0x276F JUMPI POP DUP6 DUP4 ADD MLOAD JUMPDEST PUSH2 0x2779 DUP6 DUP3 PUSH2 0x23E5 JUMP JUMPDEST DUP7 SSTORE POP PUSH2 0x23DC JUMP JUMPDEST PUSH1 0x0 DUP6 DUP2 MSTORE PUSH1 0x20 DUP2 KECCAK256 PUSH1 0x1F NOT DUP7 AND SWAP2 JUMPDEST DUP3 DUP2 LT ISZERO PUSH2 0x27B0 JUMPI DUP9 DUP7 ADD MLOAD DUP3 SSTORE SWAP5 DUP5 ADD SWAP5 PUSH1 0x1 SWAP1 SWAP2 ADD SWAP1 DUP5 ADD PUSH2 0x2791 JUMP JUMPDEST POP DUP6 DUP3 LT ISZERO PUSH2 0x27CE JUMPI DUP8 DUP6 ADD MLOAD PUSH1 0x0 NOT PUSH1 0x3 DUP9 SWAP1 SHL PUSH1 0xF8 AND SHR NOT AND DUP2 SSTORE JUMPDEST POP POP POP POP POP PUSH1 0x1 SWAP1 DUP2 SHL ADD SWAP1 SSTORE POP JUMP JUMPDEST PUSH1 0x40 DUP2 MSTORE PUSH1 0x0 PUSH2 0x27F1 PUSH1 0x40 DUP4 ADD DUP6 PUSH2 0x1DEE JUMP JUMPDEST SWAP1 POP PUSH1 0x1 DUP1 PUSH1 0xA0 SHL SUB DUP4 AND PUSH1 0x20 DUP4 ADD MSTORE SWAP4 SWAP3 POP POP POP JUMP JUMPDEST PUSH1 0x0 PUSH2 0x2814 DUP3 DUP9 PUSH2 0x22EE JUMP JUMPDEST PUSH1 0x17 PUSH1 0xF9 SHL DUP1 DUP3 MSTORE PUSH2 0x2829 PUSH1 0x1 DUP4 ADD DUP10 PUSH2 0x22EE JUMP JUMPDEST SWAP2 POP DUP1 DUP3 MSTORE PUSH2 0x283B PUSH1 0x1 DUP4 ADD DUP9 PUSH2 0x22EE JUMP JUMPDEST SWAP1 DUP2 MSTORE SWAP1 POP PUSH2 0x284D PUSH1 0x1 DUP3 ADD DUP7 PUSH2 0x22EE JUMP JUMPDEST SWAP1 POP DUP4 MLOAD PUSH2 0x285F DUP2 DUP4 PUSH1 0x20 DUP9 ADD PUSH2 0x1DCA JUMP JUMPDEST ADD SWAP8 SWAP7 POP POP POP POP POP POP POP JUMP JUMPDEST PUSH1 0x0 DUP3 PUSH2 0x2888 JUMPI PUSH4 0x4E487B71 PUSH1 0xE0 SHL PUSH1 0x0 MSTORE PUSH1 0x12 PUSH1 0x4 MSTORE PUSH1 0x24 PUSH1 0x0 REVERT JUMPDEST POP MOD SWAP1 JUMP INVALID LOG2 PUSH5 0x6970667358 0x22 SLT KECCAK256 0xDB SWAP12 SWAP8 CALLVALUE 0xED 0xCB OR SWAP6 0x4C NOT DUP7 SLOAD SWAP16 0x2F 0xEB SSTORE STOP 0xD7 SDIV SLT 0xFC CALLDATASIZE RETURNDATASIZE 0xFB MLOAD COINBASE PUSH13 0x7941D74EB764736F6C63430008 EQ STOP CALLER "},"methodIdentifiers":{"MAX_DOMAINS_PER_USER()":"03b444ac","REGISTRATION_FEE()":"64b4f751","domainComponents(bytes32)":"b1195723","domainExists(string)":"c7559974","domainOwners(string)":"f2b49896","getAllComponents()":"66fadf0b","getDomainComponents(string)":"c11f70fa","getDomainInfo(string)":"4889e192","getUserDomains(address)":"0183196b","owner()":"8da5cb5b","previewRandomDomain(address,uint256,uint8)":"75a4d14c","registerRandomDomain(uint8)":"b9e97fb5","renounceOwnership()":"715018a6","setValidComponents(string[],string[],string[],string[])":"86d12ac9","transferDomain(string,address)":"19fbe87e","transferOwnership(address)":"f2fde38b","userDomains(address,uint256)":"9f4cb8f0","validAdjectives(uint256)":"6702f093","validChains(uint256)":"5a5a654c","validDescriptors(uint256)":"3c4b9635","validNouns(uint256)":"83d1d052","withdraw()":"3ccfd60b"}}}}}